{
  "_format": "hh-sol-artifact-1",
  "contractName": "RatNFT",
  "sourceName": "contracts/RatNFT.sol",
  "abi": [
    {
      "inputs": [
        {
          "internalType": "string",
          "name": "name_",
          "type": "string"
        },
        {
          "internalType": "string",
          "name": "symbol_",
          "type": "string"
        },
        {
          "internalType": "string",
          "name": "baseTokenURI_",
          "type": "string"
        },
        {
          "internalType": "address",
          "name": "defaultPaymentToken_",
          "type": "address"
        },
        {
          "internalType": "uint256",
          "name": "defaultMintPrice_",
          "type": "uint256"
        }
      ],
      "stateMutability": "nonpayable",
      "type": "constructor"
    },
    {
      "inputs": [],
      "name": "ERC721EnumerableForbiddenBatchMint",
      "type": "error"
    },
    {
      "inputs": [
        {
          "internalType": "address",
          "name": "sender",
          "type": "address"
        },
        {
          "internalType": "uint256",
          "name": "tokenId",
          "type": "uint256"
        },
        {
          "internalType": "address",
          "name": "owner",
          "type": "address"
        }
      ],
      "name": "ERC721IncorrectOwner",
      "type": "error"
    },
    {
      "inputs": [
        {
          "internalType": "address",
          "name": "operator",
          "type": "address"
        },
        {
          "internalType": "uint256",
          "name": "tokenId",
          "type": "uint256"
        }
      ],
      "name": "ERC721InsufficientApproval",
      "type": "error"
    },
    {
      "inputs": [
        {
          "internalType": "address",
          "name": "approver",
          "type": "address"
        }
      ],
      "name": "ERC721InvalidApprover",
      "type": "error"
    },
    {
      "inputs": [
        {
          "internalType": "address",
          "name": "operator",
          "type": "address"
        }
      ],
      "name": "ERC721InvalidOperator",
      "type": "error"
    },
    {
      "inputs": [
        {
          "internalType": "address",
          "name": "owner",
          "type": "address"
        }
      ],
      "name": "ERC721InvalidOwner",
      "type": "error"
    },
    {
      "inputs": [
        {
          "internalType": "address",
          "name": "receiver",
          "type": "address"
        }
      ],
      "name": "ERC721InvalidReceiver",
      "type": "error"
    },
    {
      "inputs": [
        {
          "internalType": "address",
          "name": "sender",
          "type": "address"
        }
      ],
      "name": "ERC721InvalidSender",
      "type": "error"
    },
    {
      "inputs": [
        {
          "internalType": "uint256",
          "name": "tokenId",
          "type": "uint256"
        }
      ],
      "name": "ERC721NonexistentToken",
      "type": "error"
    },
    {
      "inputs": [
        {
          "internalType": "address",
          "name": "owner",
          "type": "address"
        },
        {
          "internalType": "uint256",
          "name": "index",
          "type": "uint256"
        }
      ],
      "name": "ERC721OutOfBoundsIndex",
      "type": "error"
    },
    {
      "inputs": [
        {
          "internalType": "address",
          "name": "owner",
          "type": "address"
        }
      ],
      "name": "OwnableInvalidOwner",
      "type": "error"
    },
    {
      "inputs": [
        {
          "internalType": "address",
          "name": "account",
          "type": "address"
        }
      ],
      "name": "OwnableUnauthorizedAccount",
      "type": "error"
    },
    {
      "anonymous": false,
      "inputs": [
        {
          "indexed": true,
          "internalType": "address",
          "name": "owner",
          "type": "address"
        },
        {
          "indexed": true,
          "internalType": "address",
          "name": "approved",
          "type": "address"
        },
        {
          "indexed": true,
          "internalType": "uint256",
          "name": "tokenId",
          "type": "uint256"
        }
      ],
      "name": "Approval",
      "type": "event"
    },
    {
      "anonymous": false,
      "inputs": [
        {
          "indexed": true,
          "internalType": "address",
          "name": "owner",
          "type": "address"
        },
        {
          "indexed": true,
          "internalType": "address",
          "name": "operator",
          "type": "address"
        },
        {
          "indexed": false,
          "internalType": "bool",
          "name": "approved",
          "type": "bool"
        }
      ],
      "name": "ApprovalForAll",
      "type": "event"
    },
    {
      "anonymous": false,
      "inputs": [
        {
          "indexed": false,
          "internalType": "string",
          "name": "newBaseURI",
          "type": "string"
        }
      ],
      "name": "BaseURIUpdated",
      "type": "event"
    },
    {
      "anonymous": false,
      "inputs": [
        {
          "indexed": true,
          "internalType": "address",
          "name": "previousOwner",
          "type": "address"
        },
        {
          "indexed": true,
          "internalType": "address",
          "name": "newOwner",
          "type": "address"
        }
      ],
      "name": "OwnershipTransferred",
      "type": "event"
    },
    {
      "anonymous": false,
      "inputs": [
        {
          "indexed": true,
          "internalType": "uint8",
          "name": "imageIndex",
          "type": "uint8"
        },
        {
          "indexed": false,
          "internalType": "address",
          "name": "paymentToken",
          "type": "address"
        },
        {
          "indexed": false,
          "internalType": "uint256",
          "name": "price",
          "type": "uint256"
        }
      ],
      "name": "RatConfigUpdated",
      "type": "event"
    },
    {
      "anonymous": false,
      "inputs": [
        {
          "indexed": true,
          "internalType": "address",
          "name": "to",
          "type": "address"
        },
        {
          "indexed": true,
          "internalType": "uint256",
          "name": "tokenId",
          "type": "uint256"
        },
        {
          "indexed": false,
          "internalType": "uint8",
          "name": "imageIndex",
          "type": "uint8"
        }
      ],
      "name": "RatMinted",
      "type": "event"
    },
    {
      "anonymous": false,
      "inputs": [
        {
          "indexed": true,
          "internalType": "address",
          "name": "from",
          "type": "address"
        },
        {
          "indexed": true,
          "internalType": "address",
          "name": "to",
          "type": "address"
        },
        {
          "indexed": true,
          "internalType": "uint256",
          "name": "tokenId",
          "type": "uint256"
        }
      ],
      "name": "Transfer",
      "type": "event"
    },
    {
      "inputs": [
        {
          "internalType": "address",
          "name": "to",
          "type": "address"
        },
        {
          "internalType": "uint256",
          "name": "tokenId",
          "type": "uint256"
        }
      ],
      "name": "approve",
      "outputs": [],
      "stateMutability": "nonpayable",
      "type": "function"
    },
    {
      "inputs": [
        {
          "internalType": "address",
          "name": "owner",
          "type": "address"
        }
      ],
      "name": "balanceOf",
      "outputs": [
        {
          "internalType": "uint256",
          "name": "",
          "type": "uint256"
        }
      ],
      "stateMutability": "view",
      "type": "function"
    },
    {
      "inputs": [
        {
          "internalType": "uint256",
          "name": "tokenId",
          "type": "uint256"
        }
      ],
      "name": "getApproved",
      "outputs": [
        {
          "internalType": "address",
          "name": "",
          "type": "address"
        }
      ],
      "stateMutability": "view",
      "type": "function"
    },
    {
      "inputs": [
        {
          "internalType": "uint8",
          "name": "imageIndex",
          "type": "uint8"
        }
      ],
      "name": "getRatConfig",
      "outputs": [
        {
          "internalType": "address",
          "name": "paymentToken",
          "type": "address"
        },
        {
          "internalType": "uint256",
          "name": "price",
          "type": "uint256"
        }
      ],
      "stateMutability": "view",
      "type": "function"
    },
    {
      "inputs": [
        {
          "internalType": "address",
          "name": "owner",
          "type": "address"
        }
      ],
      "name": "getRatsOfOwner",
      "outputs": [
        {
          "internalType": "uint256[]",
          "name": "",
          "type": "uint256[]"
        }
      ],
      "stateMutability": "view",
      "type": "function"
    },
    {
      "inputs": [
        {
          "internalType": "address",
          "name": "owner",
          "type": "address"
        },
        {
          "internalType": "address",
          "name": "operator",
          "type": "address"
        }
      ],
      "name": "isApprovedForAll",
      "outputs": [
        {
          "internalType": "bool",
          "name": "",
          "type": "bool"
        }
      ],
      "stateMutability": "view",
      "type": "function"
    },
    {
      "inputs": [
        {
          "internalType": "address",
          "name": "to",
          "type": "address"
        },
        {
          "internalType": "uint8",
          "name": "imageIndex",
          "type": "uint8"
        }
      ],
      "name": "mint",
      "outputs": [
        {
          "internalType": "uint256",
          "name": "",
          "type": "uint256"
        }
      ],
      "stateMutability": "nonpayable",
      "type": "function"
    },
    {
      "inputs": [],
      "name": "name",
      "outputs": [
        {
          "internalType": "string",
          "name": "",
          "type": "string"
        }
      ],
      "stateMutability": "view",
      "type": "function"
    },
    {
      "inputs": [],
      "name": "nextTokenId",
      "outputs": [
        {
          "internalType": "uint256",
          "name": "",
          "type": "uint256"
        }
      ],
      "stateMutability": "view",
      "type": "function"
    },
    {
      "inputs": [],
      "name": "owner",
      "outputs": [
        {
          "internalType": "address",
          "name": "",
          "type": "address"
        }
      ],
      "stateMutability": "view",
      "type": "function"
    },
    {
      "inputs": [
        {
          "internalType": "address",
          "name": "to",
          "type": "address"
        },
        {
          "internalType": "uint8",
          "name": "imageIndex",
          "type": "uint8"
        }
      ],
      "name": "ownerMint",
      "outputs": [
        {
          "internalType": "uint256",
          "name": "",
          "type": "uint256"
        }
      ],
      "stateMutability": "nonpayable",
      "type": "function"
    },
    {
      "inputs": [
        {
          "internalType": "uint256",
          "name": "tokenId",
          "type": "uint256"
        }
      ],
      "name": "ownerOf",
      "outputs": [
        {
          "internalType": "address",
          "name": "",
          "type": "address"
        }
      ],
      "stateMutability": "view",
      "type": "function"
    },
    {
      "inputs": [
        {
          "internalType": "uint8",
          "name": "",
          "type": "uint8"
        }
      ],
      "name": "ratMintPrices",
      "outputs": [
        {
          "internalType": "uint256",
          "name": "",
          "type": "uint256"
        }
      ],
      "stateMutability": "view",
      "type": "function"
    },
    {
      "inputs": [
        {
          "internalType": "uint8",
          "name": "",
          "type": "uint8"
        }
      ],
      "name": "ratPaymentTokens",
      "outputs": [
        {
          "internalType": "address",
          "name": "",
          "type": "address"
        }
      ],
      "stateMutability": "view",
      "type": "function"
    },
    {
      "inputs": [],
      "name": "renounceOwnership",
      "outputs": [],
      "stateMutability": "nonpayable",
      "type": "function"
    },
    {
      "inputs": [
        {
          "internalType": "address",
          "name": "from",
          "type": "address"
        },
        {
          "internalType": "address",
          "name": "to",
          "type": "address"
        },
        {
          "internalType": "uint256",
          "name": "tokenId",
          "type": "uint256"
        }
      ],
      "name": "safeTransferFrom",
      "outputs": [],
      "stateMutability": "nonpayable",
      "type": "function"
    },
    {
      "inputs": [
        {
          "internalType": "address",
          "name": "from",
          "type": "address"
        },
        {
          "internalType": "address",
          "name": "to",
          "type": "address"
        },
        {
          "internalType": "uint256",
          "name": "tokenId",
          "type": "uint256"
        },
        {
          "internalType": "bytes",
          "name": "data",
          "type": "bytes"
        }
      ],
      "name": "safeTransferFrom",
      "outputs": [],
      "stateMutability": "nonpayable",
      "type": "function"
    },
    {
      "inputs": [
        {
          "internalType": "address",
          "name": "operator",
          "type": "address"
        },
        {
          "internalType": "bool",
          "name": "approved",
          "type": "bool"
        }
      ],
      "name": "setApprovalForAll",
      "outputs": [],
      "stateMutability": "nonpayable",
      "type": "function"
    },
    {
      "inputs": [
        {
          "internalType": "string",
          "name": "baseTokenURI_",
          "type": "string"
        }
      ],
      "name": "setBaseURI",
      "outputs": [],
      "stateMutability": "nonpayable",
      "type": "function"
    },
    {
      "inputs": [
        {
          "internalType": "uint8",
          "name": "imageIndex",
          "type": "uint8"
        },
        {
          "internalType": "address",
          "name": "paymentToken",
          "type": "address"
        },
        {
          "internalType": "uint256",
          "name": "price",
          "type": "uint256"
        }
      ],
      "name": "setRatConfig",
      "outputs": [],
      "stateMutability": "nonpayable",
      "type": "function"
    },
    {
      "inputs": [
        {
          "internalType": "bytes4",
          "name": "interfaceId",
          "type": "bytes4"
        }
      ],
      "name": "supportsInterface",
      "outputs": [
        {
          "internalType": "bool",
          "name": "",
          "type": "bool"
        }
      ],
      "stateMutability": "view",
      "type": "function"
    },
    {
      "inputs": [],
      "name": "symbol",
      "outputs": [
        {
          "internalType": "string",
          "name": "",
          "type": "string"
        }
      ],
      "stateMutability": "view",
      "type": "function"
    },
    {
      "inputs": [
        {
          "internalType": "uint256",
          "name": "index",
          "type": "uint256"
        }
      ],
      "name": "tokenByIndex",
      "outputs": [
        {
          "internalType": "uint256",
          "name": "",
          "type": "uint256"
        }
      ],
      "stateMutability": "view",
      "type": "function"
    },
    {
      "inputs": [
        {
          "internalType": "address",
          "name": "owner",
          "type": "address"
        },
        {
          "internalType": "uint256",
          "name": "index",
          "type": "uint256"
        }
      ],
      "name": "tokenOfOwnerByIndex",
      "outputs": [
        {
          "internalType": "uint256",
          "name": "",
          "type": "uint256"
        }
      ],
      "stateMutability": "view",
      "type": "function"
    },
    {
      "inputs": [
        {
          "internalType": "uint256",
          "name": "tokenId",
          "type": "uint256"
        }
      ],
      "name": "tokenURI",
      "outputs": [
        {
          "internalType": "string",
          "name": "",
          "type": "string"
        }
      ],
      "stateMutability": "view",
      "type": "function"
    },
    {
      "inputs": [],
      "name": "totalSupply",
      "outputs": [
        {
          "internalType": "uint256",
          "name": "",
          "type": "uint256"
        }
      ],
      "stateMutability": "view",
      "type": "function"
    },
    {
      "inputs": [
        {
          "internalType": "address",
          "name": "from",
          "type": "address"
        },
        {
          "internalType": "address",
          "name": "to",
          "type": "address"
        },
        {
          "internalType": "uint256",
          "name": "tokenId",
          "type": "uint256"
        }
      ],
      "name": "transferFrom",
      "outputs": [],
      "stateMutability": "nonpayable",
      "type": "function"
    },
    {
      "inputs": [
        {
          "internalType": "address",
          "name": "newOwner",
          "type": "address"
        }
      ],
      "name": "transferOwnership",
      "outputs": [],
      "stateMutability": "nonpayable",
      "type": "function"
    },
    {
      "inputs": [
        {
          "internalType": "address",
          "name": "token",
          "type": "address"
        },
        {
          "internalType": "address",
          "name": "to",
          "type": "address"
        },
        {
          "internalType": "uint256",
          "name": "amount",
          "type": "uint256"
        }
      ],
      "name": "withdrawTokens",
      "outputs": [],
      "stateMutability": "nonpayable",
      "type": "function"
    }
  ],
  "bytecode": "0x60806040523480156200001157600080fd5b506040516200234c3803806200234c83398101604081905262000034916200021d565b33858560006200004583826200036d565b5060016200005482826200036d565b5050506001600160a01b0381166200008657604051631e4fbdf760e01b81526000600482015260240160405180910390fd5b620000918162000103565b506001600b55600c620000a584826200036d565b5060005b60038160ff161015620000f75760ff81166000908152600d6020908152604080832080546001600160a01b0319166001600160a01b038816179055600e9091529020829055600101620000a9565b50505050505062000439565b600a80546001600160a01b038381166001600160a01b0319831681179093556040519116919082907f8be0079c531659141344cd1fd0a4f28419497f9722a3daafe3b4186f6b6457e090600090a35050565b634e487b7160e01b600052604160045260246000fd5b600082601f8301126200017d57600080fd5b81516001600160401b03808211156200019a576200019a62000155565b604051601f8301601f19908116603f01168101908282118183101715620001c557620001c562000155565b8160405283815260209250866020858801011115620001e357600080fd5b600091505b83821015620002075785820183015181830184015290820190620001e8565b6000602085830101528094505050505092915050565b600080600080600060a086880312156200023657600080fd5b85516001600160401b03808211156200024e57600080fd5b6200025c89838a016200016b565b965060208801519150808211156200027357600080fd5b6200028189838a016200016b565b955060408801519150808211156200029857600080fd5b50620002a7888289016200016b565b606088015190945090506001600160a01b0381168114620002c757600080fd5b80925050608086015190509295509295909350565b600181811c90821680620002f157607f821691505b6020821081036200031257634e487b7160e01b600052602260045260246000fd5b50919050565b601f82111562000368576000816000526020600020601f850160051c81016020861015620003435750805b601f850160051c820191505b8181101562000364578281556001016200034f565b5050505b505050565b81516001600160401b0381111562000389576200038962000155565b620003a1816200039a8454620002dc565b8462000318565b602080601f831160018114620003d95760008415620003c05750858301515b600019600386901b1c1916600185901b17855562000364565b600085815260208120601f198616915b828110156200040a57888601518255948401946001909101908401620003e9565b5085821015620004295787850151600019600388901b60f8161c191681555b5050505050600190811b01905550565b611f0380620004496000396000f3fe608060405234801561001057600080fd5b50600436106101cf5760003560e01c8063691562a011610104578063b88d4fde116100a2578063d959cd6911610071578063d959cd69146103ec578063e111e212146103ff578063e985e9c514610458578063f2fde38b1461046b57600080fd5b8063b88d4fde1461037d578063c87b56dd14610390578063cb719716146103a3578063cff2e92c146103c357600080fd5b806375794a3c116100de57806375794a3c146103495780638da5cb5b1461035157806395d89b4114610362578063a22cb4651461036a57600080fd5b8063691562a01461031b57806370a082311461032e578063715018a61461034157600080fd5b80633855c60d116101715780634f6ccce71161014b5780634f6ccce7146102cf57806355f804b3146102e25780635e35359e146102f55780636352211e1461030857600080fd5b80633855c60d146102895780633b696a841461029c57806342842e0e146102bc57600080fd5b8063095ea7b3116101ad578063095ea7b31461023c57806318160ddd1461025157806323b872dd146102635780632f745c591461027657600080fd5b806301ffc9a7146101d457806306fdde03146101fc578063081812fc14610211575b600080fd5b6101e76101e23660046118c0565b61047e565b60405190151581526020015b60405180910390f35b6102046104a9565b6040516101f3919061192d565b61022461021f366004611940565b61053b565b6040516001600160a01b0390911681526020016101f3565b61024f61024a366004611975565b610564565b005b6008545b6040519081526020016101f3565b61024f61027136600461199f565b610573565b610255610284366004611975565b610603565b6102556102973660046119ec565b610668565b6102af6102aa366004611a1f565b610733565b6040516101f39190611a3a565b61024f6102ca36600461199f565b6107cb565b6102556102dd366004611940565b6107eb565b61024f6102f0366004611b0a565b610844565b61024f61030336600461199f565b610893565b610224610316366004611940565b6109a2565b6102556103293660046119ec565b6109ad565b61025561033c366004611a1f565b610c20565b61024f610c68565b600b54610255565b600a546001600160a01b0316610224565b610204610c7c565b61024f610378366004611b61565b610c8b565b61024f61038b366004611b98565b610c96565b61020461039e366004611940565b610cae565b6102556103b1366004611c14565b600e6020526000908152604090205481565b6102246103d1366004611c14565b600d602052600090815260409020546001600160a01b031681565b61024f6103fa366004611c2f565b610d16565b61043961040d366004611c14565b60ff166000908152600d6020908152604080832054600e909252909120546001600160a01b0390911691565b604080516001600160a01b0390931683526020830191909152016101f3565b6101e7610466366004611c4d565b610e33565b61024f610479366004611a1f565b610e61565b60006001600160e01b0319821663780e9d6360e01b14806104a357506104a382610e9f565b92915050565b6060600080546104b890611c77565b80601f01602080910402602001604051908101604052809291908181526020018280546104e490611c77565b80156105315780601f1061050657610100808354040283529160200191610531565b820191906000526020600020905b81548152906001019060200180831161051457829003601f168201915b5050505050905090565b600061054682610eef565b506000828152600460205260409020546001600160a01b03166104a3565b61056f828233610f28565b5050565b6001600160a01b0382166105a257604051633250574960e11b8152600060048201526024015b60405180910390fd5b60006105af838333610f35565b9050836001600160a01b0316816001600160a01b0316146105fd576040516364283d7b60e01b81526001600160a01b0380861660048301526024820184905282166044820152606401610599565b50505050565b600061060e83610c20565b821061063f5760405163295f44f760e21b81526001600160a01b038416600482015260248101839052604401610599565b506001600160a01b03919091166000908152600660209081526040808320938352929052205490565b600061067261100a565b6001600160a01b0383166106c85760405162461bcd60e51b815260206004820152601b60248201527f43616e6e6f74206d696e7420746f207a65726f206164647265737300000000006044820152606401610599565b600b8054600091826106d983611cc7565b9190505590506106e98482611037565b60405160ff8416815281906001600160a01b038616907f354ed63ee646671d8b973987ba32d0c23eb70651ad8e8e73fc7afbacf777e7e89060200160405180910390a39392505050565b6060600061074083610c20565b905060008167ffffffffffffffff81111561075d5761075d611a7e565b604051908082528060200260200182016040528015610786578160200160208202803683370190505b50905060005b828110156107c35761079e8582610603565b8282815181106107b0576107b0611ce0565b602090810291909101015260010161078c565b509392505050565b6107e683838360405180602001604052806000815250610c96565b505050565b60006107f660085490565b821061081f5760405163295f44f760e21b81526000600482015260248101839052604401610599565b6008828154811061083257610832611ce0565b90600052602060002001549050919050565b61084c61100a565b600c6108588282611d3e565b507f6741b2fc379fad678116fe3d4d4b9a1a184ab53ba36b86ad0fa66340b1ab41ad81604051610888919061192d565b60405180910390a150565b61089b61100a565b6001600160a01b0382166108f15760405162461bcd60e51b815260206004820152601f60248201527f43616e6e6f7420776974686472617720746f207a65726f2061646472657373006044820152606401610599565b60405163a9059cbb60e01b81526001600160a01b0383811660048301526024820183905284169063a9059cbb906044016020604051808303816000875af1158015610940573d6000803e3d6000fd5b505050506040513d601f19601f820116820180604052508101906109649190611dfe565b6107e65760405162461bcd60e51b815260206004820152600f60248201526e151c985b9cd9995c8819985a5b1959608a1b6044820152606401610599565b60006104a382610eef565b60006001600160a01b038316610a055760405162461bcd60e51b815260206004820152601b60248201527f43616e6e6f74206d696e7420746f207a65726f206164647265737300000000006044820152606401610599565b60ff82166000908152600d6020908152604080832054600e909252909120546001600160a01b039091169081610a945760405162461bcd60e51b815260206004820152602e60248201527f5061796d656e7420746f6b656e206e6f7420636f6e6669677572656420666f7260448201526d207468697320726174207479706560901b6064820152608401610599565b60008111610af05760405162461bcd60e51b8152602060048201526024808201527f4d696e74207072696365206e6f742073657420666f72207468697320726174206044820152637479706560e01b6064820152608401610599565b6040516323b872dd60e01b8152336004820152306024820152604481018290526001600160a01b038316906323b872dd906064016020604051808303816000875af1158015610b43573d6000803e3d6000fd5b505050506040513d601f19601f82011682018060405250810190610b679190611dfe565b610bb35760405162461bcd60e51b815260206004820152601d60248201527f5061796d656e7420746f6b656e207472616e73666572206661696c65640000006044820152606401610599565b600b805460009182610bc483611cc7565b919050559050610bd48682611037565b60405160ff8616815281906001600160a01b038816907f354ed63ee646671d8b973987ba32d0c23eb70651ad8e8e73fc7afbacf777e7e89060200160405180910390a395945050505050565b60006001600160a01b038216610c4c576040516322718ad960e21b815260006004820152602401610599565b506001600160a01b031660009081526003602052604090205490565b610c7061100a565b610c7a6000611051565b565b6060600180546104b890611c77565b61056f3383836110a3565b610ca1848484610573565b6105fd3385858585611142565b6060610cb982610eef565b506000610cc461126d565b90506000815111610ce45760405180602001604052806000815250610d0f565b80610cee8461127c565b604051602001610cff929190611e1b565b6040516020818303038152906040525b9392505050565b610d1e61100a565b6001600160a01b038216610d6c5760405162461bcd60e51b815260206004820152601560248201527424b73b30b634b2103830bcb6b2b73a103a37b5b2b760591b6044820152606401610599565b60008111610dbc5760405162461bcd60e51b815260206004820152601c60248201527f5072696365206d7573742062652067726561746572207468616e2030000000006044820152606401610599565b60ff83166000818152600d6020908152604080832080546001600160a01b0319166001600160a01b038816908117909155600e83529281902085905580519283529082018490527f981c6b3a871d1a81c2e3be47b12eff3ab2016a6af98d888e2f9abcf4ba758188910160405180910390a2505050565b6001600160a01b03918216600090815260056020908152604080832093909416825291909152205460ff1690565b610e6961100a565b6001600160a01b038116610e9357604051631e4fbdf760e01b815260006004820152602401610599565b610e9c81611051565b50565b60006001600160e01b031982166380ac58cd60e01b1480610ed057506001600160e01b03198216635b5e139f60e01b145b806104a357506301ffc9a760e01b6001600160e01b03198316146104a3565b6000818152600260205260408120546001600160a01b0316806104a357604051637e27328960e01b815260048101849052602401610599565b6107e6838383600161130f565b600080610f43858585611415565b90506001600160a01b038116610fa057610f9b84600880546000838152600960205260408120829055600182018355919091527ff3f7a9fe364faab93b216da50a3214154f22a0a2b415b23a84c8169e8b636ee30155565b610fc3565b846001600160a01b0316816001600160a01b031614610fc357610fc3818561150e565b6001600160a01b038516610fdf57610fda8461158f565b611002565b846001600160a01b0316816001600160a01b03161461100257611002858561163e565b949350505050565b600a546001600160a01b03163314610c7a5760405163118cdaa760e01b8152336004820152602401610599565b61056f82826040518060200160405280600081525061168e565b600a80546001600160a01b038381166001600160a01b0319831681179093556040519116919082907f8be0079c531659141344cd1fd0a4f28419497f9722a3daafe3b4186f6b6457e090600090a35050565b6001600160a01b0382166110d557604051630b61174360e31b81526001600160a01b0383166004820152602401610599565b6001600160a01b03838116600081815260056020908152604080832094871680845294825291829020805460ff191686151590811790915591519182527f17307eab39ab6107e8899845ad3d59bd9653f200f220920489ca2b5937696c31910160405180910390a3505050565b6001600160a01b0383163b1561126657604051630a85bd0160e11b81526001600160a01b0384169063150b7a0290611184908890889087908790600401611e4a565b6020604051808303816000875af19250505080156111bf575060408051601f3d908101601f191682019092526111bc91810190611e87565b60015b611228573d8080156111ed576040519150601f19603f3d011682016040523d82523d6000602084013e6111f2565b606091505b50805160000361122057604051633250574960e11b81526001600160a01b0385166004820152602401610599565b805160208201fd5b6001600160e01b03198116630a85bd0160e11b1461126457604051633250574960e11b81526001600160a01b0385166004820152602401610599565b505b5050505050565b6060600c80546104b890611c77565b60606000611289836116a6565b600101905060008167ffffffffffffffff8111156112a9576112a9611a7e565b6040519080825280601f01601f1916602001820160405280156112d3576020820181803683370190505b5090508181016020015b600019016f181899199a1a9b1b9c1cb0b131b232b360811b600a86061a8153600a85049450846112dd57509392505050565b808061132357506001600160a01b03821615155b156113e557600061133384610eef565b90506001600160a01b0383161580159061135f5750826001600160a01b0316816001600160a01b031614155b801561137257506113708184610e33565b155b1561139b5760405163a9fbf51f60e01b81526001600160a01b0384166004820152602401610599565b81156113e35783856001600160a01b0316826001600160a01b03167f8c5be1e5ebec7d5bd14f71427d1e84f3dd0314c0f7b2291e5b200ac8c7c3b92560405160405180910390a45b505b5050600090815260046020526040902080546001600160a01b0319166001600160a01b0392909216919091179055565b6000828152600260205260408120546001600160a01b03908116908316156114425761144281848661177e565b6001600160a01b038116156114805761145f60008560008061130f565b6001600160a01b038116600090815260036020526040902080546000190190555b6001600160a01b038516156114af576001600160a01b0385166000908152600360205260409020805460010190555b60008481526002602052604080822080546001600160a01b0319166001600160a01b0389811691821790925591518793918516917fddf252ad1be2c89b69c2b068fc378daa952ba7f163c4a11628f55a4df523b3ef91a4949350505050565b600061151983610c20565b6000838152600760209081526040808320546001600160a01b038816845260069092529091209192509081831461157057600083815260208281526040808320548584528184208190558352600790915290208290555b6000938452600760209081526040808620869055938552525081205550565b6008546000906115a190600190611ea4565b600083815260096020526040812054600880549394509092849081106115c9576115c9611ce0565b9060005260206000200154905080600883815481106115ea576115ea611ce0565b600091825260208083209091019290925582815260099091526040808220849055858252812055600880548061162257611622611eb7565b6001900381819060005260206000200160009055905550505050565b6000600161164b84610c20565b6116559190611ea4565b6001600160a01b039093166000908152600660209081526040808320868452825280832085905593825260079052919091209190915550565b61169883836117e2565b6107e6336000858585611142565b60008072184f03e93ff9f4daa797ed6e38ed64bf6a1f0160401b83106116e55772184f03e93ff9f4daa797ed6e38ed64bf6a1f0160401b830492506040015b6d04ee2d6d415b85acef81000000008310611711576d04ee2d6d415b85acef8100000000830492506020015b662386f26fc10000831061172f57662386f26fc10000830492506010015b6305f5e1008310611747576305f5e100830492506008015b612710831061175b57612710830492506004015b6064831061176d576064830492506002015b600a83106104a35760010192915050565b611789838383611847565b6107e6576001600160a01b0383166117b757604051637e27328960e01b815260048101829052602401610599565b60405163177e802f60e01b81526001600160a01b038316600482015260248101829052604401610599565b6001600160a01b03821661180c57604051633250574960e11b815260006004820152602401610599565b600061181a83836000610f35565b90506001600160a01b038116156107e6576040516339e3563760e11b815260006004820152602401610599565b60006001600160a01b038316158015906110025750826001600160a01b0316846001600160a01b0316148061188157506118818484610e33565b806110025750506000908152600460205260409020546001600160a01b03908116911614919050565b6001600160e01b031981168114610e9c57600080fd5b6000602082840312156118d257600080fd5b8135610d0f816118aa565b60005b838110156118f85781810151838201526020016118e0565b50506000910152565b600081518084526119198160208601602086016118dd565b601f01601f19169290920160200192915050565b602081526000610d0f6020830184611901565b60006020828403121561195257600080fd5b5035919050565b80356001600160a01b038116811461197057600080fd5b919050565b6000806040838503121561198857600080fd5b61199183611959565b946020939093013593505050565b6000806000606084860312156119b457600080fd5b6119bd84611959565b92506119cb60208501611959565b9150604084013590509250925092565b803560ff8116811461197057600080fd5b600080604083850312156119ff57600080fd5b611a0883611959565b9150611a16602084016119db565b90509250929050565b600060208284031215611a3157600080fd5b610d0f82611959565b6020808252825182820181905260009190848201906040850190845b81811015611a7257835183529284019291840191600101611a56565b50909695505050505050565b634e487b7160e01b600052604160045260246000fd5b600067ffffffffffffffff80841115611aaf57611aaf611a7e565b604051601f8501601f19908116603f01168101908282118183101715611ad757611ad7611a7e565b81604052809350858152868686011115611af057600080fd5b858560208301376000602087830101525050509392505050565b600060208284031215611b1c57600080fd5b813567ffffffffffffffff811115611b3357600080fd5b8201601f81018413611b4457600080fd5b61100284823560208401611a94565b8015158114610e9c57600080fd5b60008060408385031215611b7457600080fd5b611b7d83611959565b91506020830135611b8d81611b53565b809150509250929050565b60008060008060808587031215611bae57600080fd5b611bb785611959565b9350611bc560208601611959565b925060408501359150606085013567ffffffffffffffff811115611be857600080fd5b8501601f81018713611bf957600080fd5b611c0887823560208401611a94565b91505092959194509250565b600060208284031215611c2657600080fd5b610d0f826119db565b600080600060608486031215611c4457600080fd5b6119bd846119db565b60008060408385031215611c6057600080fd5b611c6983611959565b9150611a1660208401611959565b600181811c90821680611c8b57607f821691505b602082108103611cab57634e487b7160e01b600052602260045260246000fd5b50919050565b634e487b7160e01b600052601160045260246000fd5b600060018201611cd957611cd9611cb1565b5060010190565b634e487b7160e01b600052603260045260246000fd5b601f8211156107e6576000816000526020600020601f850160051c81016020861015611d1f5750805b601f850160051c820191505b8181101561126457828155600101611d2b565b815167ffffffffffffffff811115611d5857611d58611a7e565b611d6c81611d668454611c77565b84611cf6565b602080601f831160018114611da15760008415611d895750858301515b600019600386901b1c1916600185901b178555611264565b600085815260208120601f198616915b82811015611dd057888601518255948401946001909101908401611db1565b5085821015611dee5787850151600019600388901b60f8161c191681555b5050505050600190811b01905550565b600060208284031215611e1057600080fd5b8151610d0f81611b53565b60008351611e2d8184602088016118dd565b835190830190611e418183602088016118dd565b01949350505050565b6001600160a01b0385811682528416602082015260408101839052608060608201819052600090611e7d90830184611901565b9695505050505050565b600060208284031215611e9957600080fd5b8151610d0f816118aa565b818103818111156104a3576104a3611cb1565b634e487b7160e01b600052603160045260246000fdfea264697066735822122072a98f85d4584f591f5d768755cafbac89d27c06f52e73a23c20202dc9d2a32664736f6c63430008180033",
  "linkReferences": {},
  "deployedLinkReferences": {}
}