{
  "_format": "hh-sol-artifact-1",
  "contractName": "RatNFT",
  "sourceName": "contracts/RatNFT.sol",
  "abi": [
    {
      "inputs": [
        {
          "internalType": "string",
          "name": "name",
          "type": "string"
        },
        {
          "internalType": "string",
          "name": "symbol",
          "type": "string"
        },
        {
          "internalType": "string",
          "name": "baseTokenURI",
          "type": "string"
        }
      ],
      "stateMutability": "nonpayable",
      "type": "constructor"
    },
    {
      "inputs": [],
      "name": "ERC721EnumerableForbiddenBatchMint",
      "type": "error"
    },
    {
      "inputs": [
        {
          "internalType": "address",
          "name": "sender",
          "type": "address"
        },
        {
          "internalType": "uint256",
          "name": "tokenId",
          "type": "uint256"
        },
        {
          "internalType": "address",
          "name": "owner",
          "type": "address"
        }
      ],
      "name": "ERC721IncorrectOwner",
      "type": "error"
    },
    {
      "inputs": [
        {
          "internalType": "address",
          "name": "operator",
          "type": "address"
        },
        {
          "internalType": "uint256",
          "name": "tokenId",
          "type": "uint256"
        }
      ],
      "name": "ERC721InsufficientApproval",
      "type": "error"
    },
    {
      "inputs": [
        {
          "internalType": "address",
          "name": "approver",
          "type": "address"
        }
      ],
      "name": "ERC721InvalidApprover",
      "type": "error"
    },
    {
      "inputs": [
        {
          "internalType": "address",
          "name": "operator",
          "type": "address"
        }
      ],
      "name": "ERC721InvalidOperator",
      "type": "error"
    },
    {
      "inputs": [
        {
          "internalType": "address",
          "name": "owner",
          "type": "address"
        }
      ],
      "name": "ERC721InvalidOwner",
      "type": "error"
    },
    {
      "inputs": [
        {
          "internalType": "address",
          "name": "receiver",
          "type": "address"
        }
      ],
      "name": "ERC721InvalidReceiver",
      "type": "error"
    },
    {
      "inputs": [
        {
          "internalType": "address",
          "name": "sender",
          "type": "address"
        }
      ],
      "name": "ERC721InvalidSender",
      "type": "error"
    },
    {
      "inputs": [
        {
          "internalType": "uint256",
          "name": "tokenId",
          "type": "uint256"
        }
      ],
      "name": "ERC721NonexistentToken",
      "type": "error"
    },
    {
      "inputs": [
        {
          "internalType": "address",
          "name": "owner",
          "type": "address"
        },
        {
          "internalType": "uint256",
          "name": "index",
          "type": "uint256"
        }
      ],
      "name": "ERC721OutOfBoundsIndex",
      "type": "error"
    },
    {
      "inputs": [
        {
          "internalType": "address",
          "name": "owner",
          "type": "address"
        }
      ],
      "name": "OwnableInvalidOwner",
      "type": "error"
    },
    {
      "inputs": [
        {
          "internalType": "address",
          "name": "account",
          "type": "address"
        }
      ],
      "name": "OwnableUnauthorizedAccount",
      "type": "error"
    },
    {
      "anonymous": false,
      "inputs": [
        {
          "indexed": true,
          "internalType": "address",
          "name": "owner",
          "type": "address"
        },
        {
          "indexed": true,
          "internalType": "address",
          "name": "approved",
          "type": "address"
        },
        {
          "indexed": true,
          "internalType": "uint256",
          "name": "tokenId",
          "type": "uint256"
        }
      ],
      "name": "Approval",
      "type": "event"
    },
    {
      "anonymous": false,
      "inputs": [
        {
          "indexed": true,
          "internalType": "address",
          "name": "owner",
          "type": "address"
        },
        {
          "indexed": true,
          "internalType": "address",
          "name": "operator",
          "type": "address"
        },
        {
          "indexed": false,
          "internalType": "bool",
          "name": "approved",
          "type": "bool"
        }
      ],
      "name": "ApprovalForAll",
      "type": "event"
    },
    {
      "anonymous": false,
      "inputs": [
        {
          "indexed": false,
          "internalType": "string",
          "name": "newBaseURI",
          "type": "string"
        }
      ],
      "name": "BaseURIUpdated",
      "type": "event"
    },
    {
      "anonymous": false,
      "inputs": [
        {
          "indexed": true,
          "internalType": "address",
          "name": "previousOwner",
          "type": "address"
        },
        {
          "indexed": true,
          "internalType": "address",
          "name": "newOwner",
          "type": "address"
        }
      ],
      "name": "OwnershipTransferred",
      "type": "event"
    },
    {
      "anonymous": false,
      "inputs": [
        {
          "indexed": true,
          "internalType": "address",
          "name": "to",
          "type": "address"
        },
        {
          "indexed": true,
          "internalType": "uint256",
          "name": "tokenId",
          "type": "uint256"
        }
      ],
      "name": "RatMinted",
      "type": "event"
    },
    {
      "anonymous": false,
      "inputs": [
        {
          "indexed": true,
          "internalType": "address",
          "name": "from",
          "type": "address"
        },
        {
          "indexed": true,
          "internalType": "address",
          "name": "to",
          "type": "address"
        },
        {
          "indexed": true,
          "internalType": "uint256",
          "name": "tokenId",
          "type": "uint256"
        }
      ],
      "name": "Transfer",
      "type": "event"
    },
    {
      "inputs": [
        {
          "internalType": "address",
          "name": "to",
          "type": "address"
        },
        {
          "internalType": "uint256",
          "name": "tokenId",
          "type": "uint256"
        }
      ],
      "name": "approve",
      "outputs": [],
      "stateMutability": "nonpayable",
      "type": "function"
    },
    {
      "inputs": [
        {
          "internalType": "address",
          "name": "owner",
          "type": "address"
        }
      ],
      "name": "balanceOf",
      "outputs": [
        {
          "internalType": "uint256",
          "name": "",
          "type": "uint256"
        }
      ],
      "stateMutability": "view",
      "type": "function"
    },
    {
      "inputs": [],
      "name": "baseURI",
      "outputs": [
        {
          "internalType": "string",
          "name": "",
          "type": "string"
        }
      ],
      "stateMutability": "view",
      "type": "function"
    },
    {
      "inputs": [
        {
          "internalType": "address",
          "name": "to",
          "type": "address"
        },
        {
          "internalType": "uint256",
          "name": "amount",
          "type": "uint256"
        }
      ],
      "name": "batchMint",
      "outputs": [],
      "stateMutability": "nonpayable",
      "type": "function"
    },
    {
      "inputs": [
        {
          "internalType": "uint256",
          "name": "tokenId",
          "type": "uint256"
        }
      ],
      "name": "getApproved",
      "outputs": [
        {
          "internalType": "address",
          "name": "",
          "type": "address"
        }
      ],
      "stateMutability": "view",
      "type": "function"
    },
    {
      "inputs": [
        {
          "internalType": "address",
          "name": "owner",
          "type": "address"
        },
        {
          "internalType": "address",
          "name": "operator",
          "type": "address"
        }
      ],
      "name": "isApprovedForAll",
      "outputs": [
        {
          "internalType": "bool",
          "name": "",
          "type": "bool"
        }
      ],
      "stateMutability": "view",
      "type": "function"
    },
    {
      "inputs": [
        {
          "internalType": "address",
          "name": "to",
          "type": "address"
        }
      ],
      "name": "mint",
      "outputs": [
        {
          "internalType": "uint256",
          "name": "",
          "type": "uint256"
        }
      ],
      "stateMutability": "nonpayable",
      "type": "function"
    },
    {
      "inputs": [],
      "name": "name",
      "outputs": [
        {
          "internalType": "string",
          "name": "",
          "type": "string"
        }
      ],
      "stateMutability": "view",
      "type": "function"
    },
    {
      "inputs": [],
      "name": "nextTokenId",
      "outputs": [
        {
          "internalType": "uint256",
          "name": "",
          "type": "uint256"
        }
      ],
      "stateMutability": "view",
      "type": "function"
    },
    {
      "inputs": [],
      "name": "owner",
      "outputs": [
        {
          "internalType": "address",
          "name": "",
          "type": "address"
        }
      ],
      "stateMutability": "view",
      "type": "function"
    },
    {
      "inputs": [
        {
          "internalType": "address",
          "name": "to",
          "type": "address"
        }
      ],
      "name": "ownerMint",
      "outputs": [
        {
          "internalType": "uint256",
          "name": "",
          "type": "uint256"
        }
      ],
      "stateMutability": "nonpayable",
      "type": "function"
    },
    {
      "inputs": [
        {
          "internalType": "uint256",
          "name": "tokenId",
          "type": "uint256"
        }
      ],
      "name": "ownerOf",
      "outputs": [
        {
          "internalType": "address",
          "name": "",
          "type": "address"
        }
      ],
      "stateMutability": "view",
      "type": "function"
    },
    {
      "inputs": [],
      "name": "renounceOwnership",
      "outputs": [],
      "stateMutability": "nonpayable",
      "type": "function"
    },
    {
      "inputs": [
        {
          "internalType": "address",
          "name": "from",
          "type": "address"
        },
        {
          "internalType": "address",
          "name": "to",
          "type": "address"
        },
        {
          "internalType": "uint256",
          "name": "tokenId",
          "type": "uint256"
        }
      ],
      "name": "safeTransferFrom",
      "outputs": [],
      "stateMutability": "nonpayable",
      "type": "function"
    },
    {
      "inputs": [
        {
          "internalType": "address",
          "name": "from",
          "type": "address"
        },
        {
          "internalType": "address",
          "name": "to",
          "type": "address"
        },
        {
          "internalType": "uint256",
          "name": "tokenId",
          "type": "uint256"
        },
        {
          "internalType": "bytes",
          "name": "data",
          "type": "bytes"
        }
      ],
      "name": "safeTransferFrom",
      "outputs": [],
      "stateMutability": "nonpayable",
      "type": "function"
    },
    {
      "inputs": [
        {
          "internalType": "address",
          "name": "operator",
          "type": "address"
        },
        {
          "internalType": "bool",
          "name": "approved",
          "type": "bool"
        }
      ],
      "name": "setApprovalForAll",
      "outputs": [],
      "stateMutability": "nonpayable",
      "type": "function"
    },
    {
      "inputs": [
        {
          "internalType": "string",
          "name": "baseURI",
          "type": "string"
        }
      ],
      "name": "setBaseURI",
      "outputs": [],
      "stateMutability": "nonpayable",
      "type": "function"
    },
    {
      "inputs": [
        {
          "internalType": "bytes4",
          "name": "interfaceId",
          "type": "bytes4"
        }
      ],
      "name": "supportsInterface",
      "outputs": [
        {
          "internalType": "bool",
          "name": "",
          "type": "bool"
        }
      ],
      "stateMutability": "view",
      "type": "function"
    },
    {
      "inputs": [],
      "name": "symbol",
      "outputs": [
        {
          "internalType": "string",
          "name": "",
          "type": "string"
        }
      ],
      "stateMutability": "view",
      "type": "function"
    },
    {
      "inputs": [
        {
          "internalType": "uint256",
          "name": "index",
          "type": "uint256"
        }
      ],
      "name": "tokenByIndex",
      "outputs": [
        {
          "internalType": "uint256",
          "name": "",
          "type": "uint256"
        }
      ],
      "stateMutability": "view",
      "type": "function"
    },
    {
      "inputs": [
        {
          "internalType": "address",
          "name": "owner",
          "type": "address"
        },
        {
          "internalType": "uint256",
          "name": "index",
          "type": "uint256"
        }
      ],
      "name": "tokenOfOwnerByIndex",
      "outputs": [
        {
          "internalType": "uint256",
          "name": "",
          "type": "uint256"
        }
      ],
      "stateMutability": "view",
      "type": "function"
    },
    {
      "inputs": [
        {
          "internalType": "uint256",
          "name": "tokenId",
          "type": "uint256"
        }
      ],
      "name": "tokenURI",
      "outputs": [
        {
          "internalType": "string",
          "name": "",
          "type": "string"
        }
      ],
      "stateMutability": "view",
      "type": "function"
    },
    {
      "inputs": [
        {
          "internalType": "address",
          "name": "owner",
          "type": "address"
        }
      ],
      "name": "tokensOfOwner",
      "outputs": [
        {
          "internalType": "uint256[]",
          "name": "",
          "type": "uint256[]"
        }
      ],
      "stateMutability": "view",
      "type": "function"
    },
    {
      "inputs": [],
      "name": "totalMinted",
      "outputs": [
        {
          "internalType": "uint256",
          "name": "",
          "type": "uint256"
        }
      ],
      "stateMutability": "view",
      "type": "function"
    },
    {
      "inputs": [],
      "name": "totalSupply",
      "outputs": [
        {
          "internalType": "uint256",
          "name": "",
          "type": "uint256"
        }
      ],
      "stateMutability": "view",
      "type": "function"
    },
    {
      "inputs": [
        {
          "internalType": "address",
          "name": "from",
          "type": "address"
        },
        {
          "internalType": "address",
          "name": "to",
          "type": "address"
        },
        {
          "internalType": "uint256",
          "name": "tokenId",
          "type": "uint256"
        }
      ],
      "name": "transferFrom",
      "outputs": [],
      "stateMutability": "nonpayable",
      "type": "function"
    },
    {
      "inputs": [
        {
          "internalType": "address",
          "name": "newOwner",
          "type": "address"
        }
      ],
      "name": "transferOwnership",
      "outputs": [],
      "stateMutability": "nonpayable",
      "type": "function"
    }
  ],
  "bytecode": "0x60806040523480156200001157600080fd5b5060405162001e6c38038062001e6c8339810160408190526200003491620001c9565b3383836000620000458382620002eb565b506001620000548282620002eb565b5050506001600160a01b0381166200008657604051631e4fbdf760e01b81526000600482015260240160405180910390fd5b6200009181620000af565b506001600b55600c620000a58282620002eb565b50505050620003b7565b600a80546001600160a01b038381166001600160a01b0319831681179093556040519116919082907f8be0079c531659141344cd1fd0a4f28419497f9722a3daafe3b4186f6b6457e090600090a35050565b634e487b7160e01b600052604160045260246000fd5b600082601f8301126200012957600080fd5b81516001600160401b038082111562000146576200014662000101565b604051601f8301601f19908116603f0116810190828211818310171562000171576200017162000101565b81604052838152602092508660208588010111156200018f57600080fd5b600091505b83821015620001b3578582018301518183018401529082019062000194565b6000602085830101528094505050505092915050565b600080600060608486031215620001df57600080fd5b83516001600160401b0380821115620001f757600080fd5b620002058783880162000117565b945060208601519150808211156200021c57600080fd5b6200022a8783880162000117565b935060408601519150808211156200024157600080fd5b50620002508682870162000117565b9150509250925092565b600181811c908216806200026f57607f821691505b6020821081036200029057634e487b7160e01b600052602260045260246000fd5b50919050565b601f821115620002e6576000816000526020600020601f850160051c81016020861015620002c15750805b601f850160051c820191505b81811015620002e257828155600101620002cd565b5050505b505050565b81516001600160401b0381111562000307576200030762000101565b6200031f816200031884546200025a565b8462000296565b602080601f8311600181146200035757600084156200033e5750858301515b600019600386901b1c1916600185901b178555620002e2565b600085815260208120601f198616915b82811015620003885788860151825594840194600190910190840162000367565b5085821015620003a75787850151600019600388901b60f8161c191681555b5050505050600190811b01905550565b611aa580620003c76000396000f3fe608060405234801561001057600080fd5b50600436106101a95760003560e01c80636a627842116100f957806395d89b4111610097578063b88d4fde11610071578063b88d4fde14610367578063c87b56dd1461037a578063e985e9c51461038d578063f2fde38b146103a057600080fd5b806395d89b4114610344578063a22cb4651461034c578063a2309ff81461035f57600080fd5b8063715018a6116100d3578063715018a61461030357806375794a3c1461030b5780638462151c146103135780638da5cb5b1461033357600080fd5b80636a627842146102d55780636c0360eb146102e857806370a08231146102f057600080fd5b806323b872dd1161016657806343508b051161014057806343508b05146102895780634f6ccce71461029c57806355f804b3146102af5780636352211e146102c257600080fd5b806323b872dd146102505780632f745c591461026357806342842e0e1461027657600080fd5b806301ffc9a7146101ae57806306fdde03146101d6578063081812fc146101eb578063095ea7b31461021657806318160ddd1461022b5780631e3bcc8e1461023d575b600080fd5b6101c16101bc366004611462565b6103b3565b60405190151581526020015b60405180910390f35b6101de6103de565b6040516101cd91906114d6565b6101fe6101f93660046114e9565b610470565b6040516001600160a01b0390911681526020016101cd565b610229610224366004611519565b610499565b005b6008545b6040519081526020016101cd565b61022f61024b366004611543565b6104a8565b61022961025e36600461155e565b610540565b61022f610271366004611519565b6105cb565b61022961028436600461155e565b610630565b610229610297366004611519565b610650565b61022f6102aa3660046114e9565b61073c565b6102296102bd366004611626565b610795565b6101fe6102d03660046114e9565b6107e4565b61022f6102e3366004611543565b6107ef565b6101de610817565b61022f6102fe366004611543565b610826565b61022961086e565b600b5461022f565b610326610321366004611543565b610882565b6040516101cd919061166f565b600a546001600160a01b03166101fe565b6101de61091a565b61022961035a3660046116b3565b610929565b61022f610934565b6102296103753660046116ef565b61094a565b6101de6103883660046114e9565b610962565b6101c161039b36600461176b565b610a4e565b6102296103ae366004611543565b610a7c565b60006001600160e01b0319821663780e9d6360e01b14806103d857506103d882610aba565b92915050565b6060600080546103ed9061179e565b80601f01602080910402602001604051908101604052809291908181526020018280546104199061179e565b80156104665780601f1061043b57610100808354040283529160200191610466565b820191906000526020600020905b81548152906001019060200180831161044957829003601f168201915b5050505050905090565b600061047b82610b0a565b506000828152600460205260409020546001600160a01b03166103d8565b6104a4828233610b43565b5050565b60006104b2610b50565b6001600160a01b0382166104e15760405162461bcd60e51b81526004016104d8906117d8565b60405180910390fd5b600b8054600091826104f283611825565b9190505590506105028382610b7d565b60405181906001600160a01b038516907f5699a17d585610a72306187b8569c16df6f5bf74ae16ac6be8e42c99eb930c9e90600090a390505b919050565b6001600160a01b03821661056a57604051633250574960e11b8152600060048201526024016104d8565b6000610577838333610b97565b9050836001600160a01b0316816001600160a01b0316146105c5576040516364283d7b60e01b81526001600160a01b03808616600483015260248201849052821660448201526064016104d8565b50505050565b60006105d683610826565b82106106075760405163295f44f760e21b81526001600160a01b0384166004820152602481018390526044016104d8565b506001600160a01b03919091166000908152600660209081526040808320938352929052205490565b61064b8383836040518060200160405280600081525061094a565b505050565b610658610b50565b6001600160a01b03821661067e5760405162461bcd60e51b81526004016104d8906117d8565b60008111801561068f575060148111155b6106d15760405162461bcd60e51b81526020600482015260136024820152720416d6f756e74206d75737420626520312d323606c1b60448201526064016104d8565b60005b8181101561064b57600b8054600091826106ed83611825565b9190505590506106fd8482610b7d565b60405181906001600160a01b038616907f5699a17d585610a72306187b8569c16df6f5bf74ae16ac6be8e42c99eb930c9e90600090a3506001016106d4565b600061074760085490565b82106107705760405163295f44f760e21b815260006004820152602481018390526044016104d8565b600882815481106107835761078361183e565b90600052602060002001549050919050565b61079d610b50565b600c6107a9828261189c565b507f6741b2fc379fad678116fe3d4d4b9a1a184ab53ba36b86ad0fa66340b1ab41ad816040516107d991906114d6565b60405180910390a150565b60006103d882610b0a565b60006001600160a01b0382166104e15760405162461bcd60e51b81526004016104d8906117d8565b6060600c80546103ed9061179e565b60006001600160a01b038216610852576040516322718ad960e21b8152600060048201526024016104d8565b506001600160a01b031660009081526003602052604090205490565b610876610b50565b6108806000610c6c565b565b6060600061088f83610826565b905060008167ffffffffffffffff8111156108ac576108ac61159a565b6040519080825280602002602001820160405280156108d5578160200160208202803683370190505b50905060005b82811015610912576108ed85826105cb565b8282815181106108ff576108ff61183e565b60209081029190910101526001016108db565b509392505050565b6060600180546103ed9061179e565b6104a4338383610cbe565b60006001600b54610945919061195c565b905090565b610955848484610540565b6105c53385858585610d5d565b606061096d82610b0a565b506000600c805461097d9061179e565b80601f01602080910402602001604051908101604052809291908181526020018280546109a99061179e565b80156109f65780601f106109cb576101008083540402835291602001916109f6565b820191906000526020600020905b8154815290600101906020018083116109d957829003601f168201915b505050505090508051600003610a1c575050604080516020810190915260008152919050565b80610a2684610e88565b604051602001610a3792919061196f565b604051602081830303815290604052915050919050565b6001600160a01b03918216600090815260056020908152604080832093909416825291909152205460ff1690565b610a84610b50565b6001600160a01b038116610aae57604051631e4fbdf760e01b8152600060048201526024016104d8565b610ab781610c6c565b50565b60006001600160e01b031982166380ac58cd60e01b1480610aeb57506001600160e01b03198216635b5e139f60e01b145b806103d857506301ffc9a760e01b6001600160e01b03198316146103d8565b6000818152600260205260408120546001600160a01b0316806103d857604051637e27328960e01b8152600481018490526024016104d8565b61064b8383836001610f89565b600a546001600160a01b031633146108805760405163118cdaa760e01b81523360048201526024016104d8565b6104a482826040518060200160405280600081525061108f565b600080610ba58585856110a7565b90506001600160a01b038116610c0257610bfd84600880546000838152600960205260408120829055600182018355919091527ff3f7a9fe364faab93b216da50a3214154f22a0a2b415b23a84c8169e8b636ee30155565b610c25565b846001600160a01b0316816001600160a01b031614610c2557610c2581856111a0565b6001600160a01b038516610c4157610c3c84611221565b610c64565b846001600160a01b0316816001600160a01b031614610c6457610c6485856112d0565b949350505050565b600a80546001600160a01b038381166001600160a01b0319831681179093556040519116919082907f8be0079c531659141344cd1fd0a4f28419497f9722a3daafe3b4186f6b6457e090600090a35050565b6001600160a01b038216610cf057604051630b61174360e31b81526001600160a01b03831660048201526024016104d8565b6001600160a01b03838116600081815260056020908152604080832094871680845294825291829020805460ff191686151590811790915591519182527f17307eab39ab6107e8899845ad3d59bd9653f200f220920489ca2b5937696c31910160405180910390a3505050565b6001600160a01b0383163b15610e8157604051630a85bd0160e11b81526001600160a01b0384169063150b7a0290610d9f9088908890879087906004016119ae565b6020604051808303816000875af1925050508015610dda575060408051601f3d908101601f19168201909252610dd7918101906119eb565b60015b610e43573d808015610e08576040519150601f19603f3d011682016040523d82523d6000602084013e610e0d565b606091505b508051600003610e3b57604051633250574960e11b81526001600160a01b03851660048201526024016104d8565b805160208201fd5b6001600160e01b03198116630a85bd0160e11b14610e7f57604051633250574960e11b81526001600160a01b03851660048201526024016104d8565b505b5050505050565b606081600003610eaf5750506040805180820190915260018152600360fc1b602082015290565b8160005b8115610ed95780610ec381611825565b9150610ed29050600a83611a1e565b9150610eb3565b60008167ffffffffffffffff811115610ef457610ef461159a565b6040519080825280601f01601f191660200182016040528015610f1e576020820181803683370190505b5090505b8415610c6457610f3360018361195c565b9150610f40600a86611a32565b610f4b906030611a46565b60f81b818381518110610f6057610f6061183e565b60200101906001600160f81b031916908160001a905350610f82600a86611a1e565b9450610f22565b8080610f9d57506001600160a01b03821615155b1561105f576000610fad84610b0a565b90506001600160a01b03831615801590610fd95750826001600160a01b0316816001600160a01b031614155b8015610fec5750610fea8184610a4e565b155b156110155760405163a9fbf51f60e01b81526001600160a01b03841660048201526024016104d8565b811561105d5783856001600160a01b0316826001600160a01b03167f8c5be1e5ebec7d5bd14f71427d1e84f3dd0314c0f7b2291e5b200ac8c7c3b92560405160405180910390a45b505b5050600090815260046020526040902080546001600160a01b0319166001600160a01b0392909216919091179055565b6110998383611320565b61064b336000858585610d5d565b6000828152600260205260408120546001600160a01b03908116908316156110d4576110d4818486611385565b6001600160a01b03811615611112576110f1600085600080610f89565b6001600160a01b038116600090815260036020526040902080546000190190555b6001600160a01b03851615611141576001600160a01b0385166000908152600360205260409020805460010190555b60008481526002602052604080822080546001600160a01b0319166001600160a01b0389811691821790925591518793918516917fddf252ad1be2c89b69c2b068fc378daa952ba7f163c4a11628f55a4df523b3ef91a4949350505050565b60006111ab83610826565b6000838152600760209081526040808320546001600160a01b038816845260069092529091209192509081831461120257600083815260208281526040808320548584528184208190558352600790915290208290555b6000938452600760209081526040808620869055938552525081205550565b6008546000906112339060019061195c565b6000838152600960205260408120546008805493945090928490811061125b5761125b61183e565b90600052602060002001549050806008838154811061127c5761127c61183e565b60009182526020808320909101929092558281526009909152604080822084905585825281205560088054806112b4576112b4611a59565b6001900381819060005260206000200160009055905550505050565b600060016112dd84610826565b6112e7919061195c565b6001600160a01b039093166000908152600660209081526040808320868452825280832085905593825260079052919091209190915550565b6001600160a01b03821661134a57604051633250574960e11b8152600060048201526024016104d8565b600061135883836000610b97565b90506001600160a01b0381161561064b576040516339e3563760e11b8152600060048201526024016104d8565b6113908383836113e9565b61064b576001600160a01b0383166113be57604051637e27328960e01b8152600481018290526024016104d8565b60405163177e802f60e01b81526001600160a01b0383166004820152602481018290526044016104d8565b60006001600160a01b03831615801590610c645750826001600160a01b0316846001600160a01b0316148061142357506114238484610a4e565b80610c645750506000908152600460205260409020546001600160a01b03908116911614919050565b6001600160e01b031981168114610ab757600080fd5b60006020828403121561147457600080fd5b813561147f8161144c565b9392505050565b60005b838110156114a1578181015183820152602001611489565b50506000910152565b600081518084526114c2816020860160208601611486565b601f01601f19169290920160200192915050565b60208152600061147f60208301846114aa565b6000602082840312156114fb57600080fd5b5035919050565b80356001600160a01b038116811461053b57600080fd5b6000806040838503121561152c57600080fd5b61153583611502565b946020939093013593505050565b60006020828403121561155557600080fd5b61147f82611502565b60008060006060848603121561157357600080fd5b61157c84611502565b925061158a60208501611502565b9150604084013590509250925092565b634e487b7160e01b600052604160045260246000fd5b600067ffffffffffffffff808411156115cb576115cb61159a565b604051601f8501601f19908116603f011681019082821181831017156115f3576115f361159a565b8160405280935085815286868601111561160c57600080fd5b858560208301376000602087830101525050509392505050565b60006020828403121561163857600080fd5b813567ffffffffffffffff81111561164f57600080fd5b8201601f8101841361166057600080fd5b610c64848235602084016115b0565b6020808252825182820181905260009190848201906040850190845b818110156116a75783518352928401929184019160010161168b565b50909695505050505050565b600080604083850312156116c657600080fd5b6116cf83611502565b9150602083013580151581146116e457600080fd5b809150509250929050565b6000806000806080858703121561170557600080fd5b61170e85611502565b935061171c60208601611502565b925060408501359150606085013567ffffffffffffffff81111561173f57600080fd5b8501601f8101871361175057600080fd5b61175f878235602084016115b0565b91505092959194509250565b6000806040838503121561177e57600080fd5b61178783611502565b915061179560208401611502565b90509250929050565b600181811c908216806117b257607f821691505b6020821081036117d257634e487b7160e01b600052602260045260246000fd5b50919050565b6020808252601b908201527f43616e6e6f74206d696e7420746f207a65726f20616464726573730000000000604082015260600190565b634e487b7160e01b600052601160045260246000fd5b6000600182016118375761183761180f565b5060010190565b634e487b7160e01b600052603260045260246000fd5b601f82111561064b576000816000526020600020601f850160051c8101602086101561187d5750805b601f850160051c820191505b81811015610e7f57828155600101611889565b815167ffffffffffffffff8111156118b6576118b661159a565b6118ca816118c4845461179e565b84611854565b602080601f8311600181146118ff57600084156118e75750858301515b600019600386901b1c1916600185901b178555610e7f565b600085815260208120601f198616915b8281101561192e5788860151825594840194600190910190840161190f565b508582101561194c5787850151600019600388901b60f8161c191681555b5050505050600190811b01905550565b818103818111156103d8576103d861180f565b60008351611981818460208801611486565b835190830190611995818360208801611486565b64173539b7b760d91b9101908152600501949350505050565b6001600160a01b03858116825284166020820152604081018390526080606082018190526000906119e1908301846114aa565b9695505050505050565b6000602082840312156119fd57600080fd5b815161147f8161144c565b634e487b7160e01b600052601260045260246000fd5b600082611a2d57611a2d611a08565b500490565b600082611a4157611a41611a08565b500690565b808201808211156103d8576103d861180f565b634e487b7160e01b600052603160045260246000fdfea264697066735822122075d26815c849eef16cffb247ad9ae0c182aaba41a6f831f30f37a28d6adde6e264736f6c63430008180033",
  "linkReferences": {},
  "deployedLinkReferences": {}
}