{
  "_format": "hh-sol-artifact-1",
  "contractName": "RaceManager",
  "sourceName": "contracts/RaceManager.sol",
  "abi": [
    {
      "inputs": [
        {
          "internalType": "address",
          "name": "ratNFT_",
          "type": "address"
        }
      ],
      "stateMutability": "nonpayable",
      "type": "constructor"
    },
    {
      "inputs": [],
      "name": "ReentrancyGuardReentrantCall",
      "type": "error"
    },
    {
      "inputs": [
        {
          "internalType": "address",
          "name": "token",
          "type": "address"
        }
      ],
      "name": "SafeERC20FailedOperation",
      "type": "error"
    },
    {
      "anonymous": false,
      "inputs": [
        {
          "indexed": true,
          "internalType": "uint256",
          "name": "raceId",
          "type": "uint256"
        },
        {
          "indexed": true,
          "internalType": "address",
          "name": "racer",
          "type": "address"
        },
        {
          "indexed": false,
          "internalType": "uint256",
          "name": "amount",
          "type": "uint256"
        }
      ],
      "name": "PrizeClaimed",
      "type": "event"
    },
    {
      "anonymous": false,
      "inputs": [
        {
          "indexed": true,
          "internalType": "uint256",
          "name": "raceId",
          "type": "uint256"
        },
        {
          "indexed": true,
          "internalType": "address",
          "name": "cancelledBy",
          "type": "address"
        }
      ],
      "name": "RaceCancelled",
      "type": "event"
    },
    {
      "anonymous": false,
      "inputs": [
        {
          "indexed": true,
          "internalType": "uint256",
          "name": "raceId",
          "type": "uint256"
        },
        {
          "indexed": true,
          "internalType": "address",
          "name": "creator",
          "type": "address"
        },
        {
          "indexed": false,
          "internalType": "uint8",
          "name": "trackId",
          "type": "uint8"
        },
        {
          "indexed": false,
          "internalType": "address",
          "name": "entryToken",
          "type": "address"
        },
        {
          "indexed": false,
          "internalType": "uint256",
          "name": "entryFee",
          "type": "uint256"
        }
      ],
      "name": "RaceCreated",
      "type": "event"
    },
    {
      "anonymous": false,
      "inputs": [
        {
          "indexed": true,
          "internalType": "uint256",
          "name": "raceId",
          "type": "uint256"
        },
        {
          "indexed": false,
          "internalType": "uint256[]",
          "name": "winningRatTokenIds",
          "type": "uint256[]"
        },
        {
          "indexed": false,
          "internalType": "address[]",
          "name": "winners",
          "type": "address[]"
        },
        {
          "indexed": false,
          "internalType": "uint256[]",
          "name": "prizes",
          "type": "uint256[]"
        }
      ],
      "name": "RaceFinished",
      "type": "event"
    },
    {
      "anonymous": false,
      "inputs": [
        {
          "indexed": true,
          "internalType": "uint256",
          "name": "raceId",
          "type": "uint256"
        },
        {
          "indexed": true,
          "internalType": "address",
          "name": "startedBy",
          "type": "address"
        }
      ],
      "name": "RaceStarted",
      "type": "event"
    },
    {
      "anonymous": false,
      "inputs": [
        {
          "indexed": true,
          "internalType": "uint256",
          "name": "raceId",
          "type": "uint256"
        },
        {
          "indexed": true,
          "internalType": "address",
          "name": "racer",
          "type": "address"
        },
        {
          "indexed": true,
          "internalType": "uint256",
          "name": "ratTokenId",
          "type": "uint256"
        }
      ],
      "name": "RacerEntered",
      "type": "event"
    },
    {
      "inputs": [],
      "name": "CREATOR_FEE_PERCENT",
      "outputs": [
        {
          "internalType": "uint256",
          "name": "",
          "type": "uint256"
        }
      ],
      "stateMutability": "view",
      "type": "function"
    },
    {
      "inputs": [],
      "name": "MAX_RACERS",
      "outputs": [
        {
          "internalType": "uint8",
          "name": "",
          "type": "uint8"
        }
      ],
      "stateMutability": "view",
      "type": "function"
    },
    {
      "inputs": [],
      "name": "PERCENT_DENOMINATOR",
      "outputs": [
        {
          "internalType": "uint256",
          "name": "",
          "type": "uint256"
        }
      ],
      "stateMutability": "view",
      "type": "function"
    },
    {
      "inputs": [],
      "name": "admin",
      "outputs": [
        {
          "internalType": "address",
          "name": "",
          "type": "address"
        }
      ],
      "stateMutability": "view",
      "type": "function"
    },
    {
      "inputs": [
        {
          "internalType": "uint256",
          "name": "raceId",
          "type": "uint256"
        }
      ],
      "name": "cancelRace",
      "outputs": [],
      "stateMutability": "nonpayable",
      "type": "function"
    },
    {
      "inputs": [
        {
          "internalType": "uint8",
          "name": "trackId",
          "type": "uint8"
        },
        {
          "internalType": "address",
          "name": "entryToken",
          "type": "address"
        },
        {
          "internalType": "uint256",
          "name": "entryFee",
          "type": "uint256"
        }
      ],
      "name": "createRace",
      "outputs": [
        {
          "internalType": "uint256",
          "name": "",
          "type": "uint256"
        }
      ],
      "stateMutability": "nonpayable",
      "type": "function"
    },
    {
      "inputs": [
        {
          "internalType": "uint256",
          "name": "raceId",
          "type": "uint256"
        },
        {
          "internalType": "uint256",
          "name": "ratTokenId",
          "type": "uint256"
        }
      ],
      "name": "enterRace",
      "outputs": [],
      "stateMutability": "nonpayable",
      "type": "function"
    },
    {
      "inputs": [
        {
          "internalType": "uint256",
          "name": "raceId",
          "type": "uint256"
        },
        {
          "internalType": "uint256[]",
          "name": "winningRatTokenIds",
          "type": "uint256[]"
        }
      ],
      "name": "finishRace",
      "outputs": [],
      "stateMutability": "nonpayable",
      "type": "function"
    },
    {
      "inputs": [
        {
          "internalType": "uint256",
          "name": "raceId",
          "type": "uint256"
        }
      ],
      "name": "getRace",
      "outputs": [
        {
          "components": [
            {
              "internalType": "uint256",
              "name": "raceId",
              "type": "uint256"
            },
            {
              "internalType": "address",
              "name": "creator",
              "type": "address"
            },
            {
              "internalType": "uint8",
              "name": "trackId",
              "type": "uint8"
            },
            {
              "internalType": "contract IERC20",
              "name": "entryToken",
              "type": "address"
            },
            {
              "internalType": "uint256",
              "name": "entryFee",
              "type": "uint256"
            },
            {
              "internalType": "enum RaceManager.RaceStatus",
              "name": "status",
              "type": "uint8"
            },
            {
              "internalType": "uint256",
              "name": "prizePool",
              "type": "uint256"
            },
            {
              "internalType": "uint256",
              "name": "createdAt",
              "type": "uint256"
            },
            {
              "internalType": "uint256",
              "name": "startedAt",
              "type": "uint256"
            },
            {
              "internalType": "uint256",
              "name": "finishedAt",
              "type": "uint256"
            }
          ],
          "internalType": "struct RaceManager.Race",
          "name": "",
          "type": "tuple"
        }
      ],
      "stateMutability": "view",
      "type": "function"
    },
    {
      "inputs": [],
      "name": "getRaceCount",
      "outputs": [
        {
          "internalType": "uint256",
          "name": "",
          "type": "uint256"
        }
      ],
      "stateMutability": "view",
      "type": "function"
    },
    {
      "inputs": [
        {
          "internalType": "uint256",
          "name": "raceId",
          "type": "uint256"
        }
      ],
      "name": "getRaceEntries",
      "outputs": [
        {
          "components": [
            {
              "internalType": "address",
              "name": "racer",
              "type": "address"
            },
            {
              "internalType": "uint256",
              "name": "ratTokenId",
              "type": "uint256"
            },
            {
              "internalType": "uint256",
              "name": "enteredAt",
              "type": "uint256"
            },
            {
              "internalType": "uint8",
              "name": "position",
              "type": "uint8"
            }
          ],
          "internalType": "struct RaceManager.RacerEntry[]",
          "name": "",
          "type": "tuple[]"
        }
      ],
      "stateMutability": "view",
      "type": "function"
    },
    {
      "inputs": [
        {
          "internalType": "uint256",
          "name": "",
          "type": "uint256"
        },
        {
          "internalType": "address",
          "name": "",
          "type": "address"
        }
      ],
      "name": "hasEntered",
      "outputs": [
        {
          "internalType": "bool",
          "name": "",
          "type": "bool"
        }
      ],
      "stateMutability": "view",
      "type": "function"
    },
    {
      "inputs": [
        {
          "internalType": "uint256",
          "name": "raceId",
          "type": "uint256"
        },
        {
          "internalType": "address",
          "name": "racer",
          "type": "address"
        }
      ],
      "name": "hasRacerEntered",
      "outputs": [
        {
          "internalType": "bool",
          "name": "",
          "type": "bool"
        }
      ],
      "stateMutability": "view",
      "type": "function"
    },
    {
      "inputs": [
        {
          "internalType": "uint256",
          "name": "ratTokenId",
          "type": "uint256"
        }
      ],
      "name": "isRatRacing",
      "outputs": [
        {
          "internalType": "bool",
          "name": "",
          "type": "bool"
        }
      ],
      "stateMutability": "view",
      "type": "function"
    },
    {
      "inputs": [
        {
          "internalType": "uint256",
          "name": "raceId",
          "type": "uint256"
        },
        {
          "internalType": "address",
          "name": "racer",
          "type": "address"
        },
        {
          "internalType": "uint256",
          "name": "ratTokenId",
          "type": "uint256"
        }
      ],
      "name": "ownerEnterRace",
      "outputs": [],
      "stateMutability": "nonpayable",
      "type": "function"
    },
    {
      "inputs": [
        {
          "internalType": "uint256",
          "name": "",
          "type": "uint256"
        },
        {
          "internalType": "uint256",
          "name": "",
          "type": "uint256"
        }
      ],
      "name": "raceEntries",
      "outputs": [
        {
          "internalType": "address",
          "name": "racer",
          "type": "address"
        },
        {
          "internalType": "uint256",
          "name": "ratTokenId",
          "type": "uint256"
        },
        {
          "internalType": "uint256",
          "name": "enteredAt",
          "type": "uint256"
        },
        {
          "internalType": "uint8",
          "name": "position",
          "type": "uint8"
        }
      ],
      "stateMutability": "view",
      "type": "function"
    },
    {
      "inputs": [
        {
          "internalType": "uint256",
          "name": "",
          "type": "uint256"
        }
      ],
      "name": "races",
      "outputs": [
        {
          "internalType": "uint256",
          "name": "raceId",
          "type": "uint256"
        },
        {
          "internalType": "address",
          "name": "creator",
          "type": "address"
        },
        {
          "internalType": "uint8",
          "name": "trackId",
          "type": "uint8"
        },
        {
          "internalType": "contract IERC20",
          "name": "entryToken",
          "type": "address"
        },
        {
          "internalType": "uint256",
          "name": "entryFee",
          "type": "uint256"
        },
        {
          "internalType": "enum RaceManager.RaceStatus",
          "name": "status",
          "type": "uint8"
        },
        {
          "internalType": "uint256",
          "name": "prizePool",
          "type": "uint256"
        },
        {
          "internalType": "uint256",
          "name": "createdAt",
          "type": "uint256"
        },
        {
          "internalType": "uint256",
          "name": "startedAt",
          "type": "uint256"
        },
        {
          "internalType": "uint256",
          "name": "finishedAt",
          "type": "uint256"
        }
      ],
      "stateMutability": "view",
      "type": "function"
    },
    {
      "inputs": [
        {
          "internalType": "uint256",
          "name": "",
          "type": "uint256"
        },
        {
          "internalType": "uint256",
          "name": "",
          "type": "uint256"
        }
      ],
      "name": "ratInRace",
      "outputs": [
        {
          "internalType": "bool",
          "name": "",
          "type": "bool"
        }
      ],
      "stateMutability": "view",
      "type": "function"
    },
    {
      "inputs": [
        {
          "internalType": "uint256",
          "name": "",
          "type": "uint256"
        }
      ],
      "name": "ratIsRacing",
      "outputs": [
        {
          "internalType": "bool",
          "name": "",
          "type": "bool"
        }
      ],
      "stateMutability": "view",
      "type": "function"
    },
    {
      "inputs": [],
      "name": "ratNFT",
      "outputs": [
        {
          "internalType": "contract IERC721",
          "name": "",
          "type": "address"
        }
      ],
      "stateMutability": "view",
      "type": "function"
    },
    {
      "inputs": [
        {
          "internalType": "address",
          "name": "newAdmin",
          "type": "address"
        }
      ],
      "name": "setAdmin",
      "outputs": [],
      "stateMutability": "nonpayable",
      "type": "function"
    },
    {
      "inputs": [
        {
          "internalType": "uint256",
          "name": "raceId",
          "type": "uint256"
        }
      ],
      "name": "startRace",
      "outputs": [],
      "stateMutability": "nonpayable",
      "type": "function"
    }
  ],
  "bytecode": "0x60a06040523480156200001157600080fd5b50604051620025b7380380620025b78339810160408190526200003491620000b8565b60016000556001600160a01b038116620000945760405162461bcd60e51b815260206004820152601760248201527f496e76616c696420726174204e46542061646472657373000000000000000000604482015260640160405180910390fd5b6001600160a01b0316608052600780546001600160a01b03191633179055620000ea565b600060208284031215620000cb57600080fd5b81516001600160a01b0381168114620000e357600080fd5b9392505050565b6080516124a362000114600039600081816101f8015281816107880152610fcd01526124a36000f3fe608060405234801561001057600080fd5b50600436106101425760003560e01c80639e6c2959116100b8578063bf7e4cd01161007c578063bf7e4cd0146103ad578063c0accbba146103d0578063d596380e146103f0578063d688e4c914610403578063da23eb6314610416578063f851a4401461041e57600080fd5b80639e6c29591461030c5780639f49858a14610314578063a6074a4614610342578063a9dfa3f614610365578063bcd3d706146103a557600080fd5b80633bf3c9451161010a5780633bf3c945146101f35780635f3b751e146102325780636614756714610245578063704b6c021461025f5780637bbc469e146102725780638354176e146102f957600080fd5b8063073c74f3146101475780630d71aba51461018a57806312bd4e73146101aa57806324d822bf146101bf5780632df7f9b7146101d2575b600080fd5b610175610155366004611f61565b600460209081526000928352604080842090915290825290205460ff1681565b60405190151581526020015b60405180910390f35b61019d610198366004611f91565b610431565b6040516101819190611fe2565b6101bd6101b8366004612086565b610549565b005b6101bd6101cd366004611f91565b6109b2565b6101e56101e03660046120a8565b610acf565b604051908152602001610181565b61021a7f000000000000000000000000000000000000000000000000000000000000000081565b6040516001600160a01b039091168152602001610181565b6101bd6102403660046120ef565b610d5b565b61024d600681565b60405160ff9091168152602001610181565b6101bd61026d366004612116565b6111e6565b6102e3610280366004611f91565b600260208190526000918252604090912080546001820154928201546003830154600484015460058501546006860154600787015460089097015495976001600160a01b038082169860ff600160a01b909304831698979091169694909116938a565b6040516101819a9998979695949392919061213a565b6101bd61030736600461219f565b611297565b6101e5606481565b610175610322366004612086565b600560209081526000928352604080842090915290825290205460ff1681565b610175610350366004611f91565b60066020526000908152604090205460ff1681565b610378610373366004612086565b6116e4565b604080516001600160a01b03909516855260208501939093529183015260ff166060820152608001610181565b6001546101e5565b6101756103bb366004611f91565b60009081526006602052604090205460ff1690565b6103e36103de366004611f91565b611737565b604051610181919061221e565b6101bd6103fe366004611f91565b6117d7565b610175610411366004611f61565b611ab1565b6101e5600a81565b60075461021a906001600160a01b031681565b610487604080516101408101825260008082526020820181905291810182905260608101829052608081018290529060a08201908152602001600081526020016000815260200160008152602001600081525090565b6000828152600260208181526040928390208351610140810185528154815260018201546001600160a01b038082169483019490945260ff600160a01b909104811695820195909552928101549091166060830152600381015460808301526004808201549293919260a0850192169081111561050657610506611faa565b600481111561051757610517611faa565b815260058201546020820152600682015460408201526007820154606082015260089091015460809091015292915050565b610551611ade565b600082815260026020526040902060068101546105895760405162461bcd60e51b81526004016105809061228e565b60405180910390fd5b600060048083015460ff16908111156105a4576105a4611faa565b146105f15760405162461bcd60e51b815260206004820152601a60248201527f52616365206e6f7420616363657074696e6720656e74726965730000000000006044820152606401610580565b60008381526003602052604090205460061161063e5760405162461bcd60e51b815260206004820152600c60248201526b149858d9481a5cc8199d5b1b60a21b6044820152606401610580565b600083815260046020908152604080832033845290915290205460ff16156106a45760405162461bcd60e51b8152602060048201526019602482015278416c726561647920656e74657265642074686973207261636560381b6044820152606401610580565b600083815260056020908152604080832085845290915290205460ff16156107095760405162461bcd60e51b815260206004820152601860248201527752617420616c726561647920696e2074686973207261636560401b6044820152606401610580565b60008281526006602052604090205460ff16156107685760405162461bcd60e51b815260206004820152601a60248201527f52617420616c726561647920696e2061637469766520726163650000000000006044820152606401610580565b6040516331a9108f60e11b81526004810183905233906001600160a01b037f00000000000000000000000000000000000000000000000000000000000000001690636352211e90602401602060405180830381865afa1580156107cf573d6000803e3d6000fd5b505050506040513d601f19601f820116820180604052508101906107f391906122bb565b6001600160a01b0316146108405760405162461bcd60e51b8152602060048201526014602482015273135d5cdd081bdddb881d1a19481c985d0813919560621b6044820152606401610580565b60038101546002820154610863916001600160a01b039091169033903090611b08565b60008381526003602081815260408084208151608081018352338082528185018981524283860190815260608401898152855460018082018855968b52888b209551600491820290960180546001600160a01b039097166001600160a01b03199097169690961786559251858701559051600285015551928701805460ff90941660ff199485161790558a885285528387209087528452828620805482168317905588865260058085528387208988528552838720805483168417905560069094529185208054909216179055908301549083018054919290916109489084906122ee565b9091555050600083815260036020526040902054600519016109745760048101805460ff191660011790555b6040518290339085907fb38ec462a27a03c1234c1c28d4163b417ea231eca7755dfc64b4758853841ab290600090a4506109ae6001600055565b5050565b6000818152600260205260409020600160048083015460ff16908111156109db576109db611faa565b14610a285760405162461bcd60e51b815260206004820152601760248201527f52616365206e6f7420726561647920746f2073746172740000000000000000006044820152606401610580565b600082815260046020908152604080832033845290915290205460ff16610a895760405162461bcd60e51b8152602060048201526015602482015274135d5cdd0818994818481c185c9d1a58da5c185b9d605a1b6044820152606401610580565b60048101805460ff19166002179055426007820155604051339083907f990d6524c45573d88d06622a0294e24ce0fcb15e05ff20da2a56200e58fbaee790600090a35050565b6000808460ff1611610b165760405162461bcd60e51b815260206004820152601060248201526f125b9d985b1a59081d1c9858dac8125160821b6044820152606401610580565b6001600160a01b038316610b645760405162461bcd60e51b8152602060048201526015602482015274496e76616c696420746f6b656e206164647265737360581b6044820152606401610580565b60008211610bac5760405162461bcd60e51b81526020600482015260156024820152740456e74727920666565206d757374206265203e203605c1b6044820152606401610580565b6001805460009182610bbd83612301565b919050559050604051806101400160405280828152602001336001600160a01b031681526020018660ff168152602001856001600160a01b0316815260200184815260200160006004811115610c1557610c15611faa565b81526000602080830182905242604080850191909152606080850184905260809485018490528684526002808452938290208651815592860151600180850180549489015160ff16600160a01b026001600160a81b03199095166001600160a01b039384161794909417909355908601519383018054949091166001600160a01b0319949094169390931790925591830151600383015560a0830151600480840180549293909260ff1916918490811115610cd257610cd2611faa565b021790555060c0820151600582015560e082015160068201556101008201516007820155610120909101516008909101556040805160ff871681526001600160a01b0386166020820152908101849052339082907f9d9377d059c448f49a21dbdbd19355d2d84c40d4662307482eb5ddb56eaa64879060600160405180910390a3949350505050565b610d63611ade565b6007546001600160a01b03163314610daa5760405162461bcd60e51b815260206004820152600a60248201526927b7363c9030b236b4b760b11b6044820152606401610580565b60008381526002602052604090206006810154610dd95760405162461bcd60e51b81526004016105809061228e565b600060048083015460ff1690811115610df457610df4611faa565b14610e415760405162461bcd60e51b815260206004820152601a60248201527f52616365206e6f7420616363657074696e6720656e74726965730000000000006044820152606401610580565b600084815260036020526040902054600611610e8e5760405162461bcd60e51b815260206004820152600c60248201526b149858d9481a5cc8199d5b1b60a21b6044820152606401610580565b60008481526004602090815260408083206001600160a01b038716845290915290205460ff1615610efd5760405162461bcd60e51b8152602060048201526019602482015278416c726561647920656e74657265642074686973207261636560381b6044820152606401610580565b600084815260056020908152604080832085845290915290205460ff1615610f625760405162461bcd60e51b815260206004820152601860248201527752617420616c726561647920696e2074686973207261636560401b6044820152606401610580565b60008281526006602052604090205460ff1615610fc15760405162461bcd60e51b815260206004820152601a60248201527f52617420616c726561647920696e2061637469766520726163650000000000006044820152606401610580565b826001600160a01b03167f00000000000000000000000000000000000000000000000000000000000000006001600160a01b0316636352211e846040518263ffffffff1660e01b815260040161101991815260200190565b602060405180830381865afa158015611036573d6000803e3d6000fd5b505050506040513d601f19601f8201168201806040525081019061105a91906122bb565b6001600160a01b0316146110b05760405162461bcd60e51b815260206004820152601a60248201527f5261636572206d757374206f776e2074686520726174204e46540000000000006044820152606401610580565b600084815260036020818152604080842081516080810183526001600160a01b03808a168083528286018a815242848701908152606085018a8152865460018181018955888d528a8d20975160049283029098018054989097166001600160a01b03199098169790971786559251858701559051600285015551928801805460ff9490941660ff199485161790558c89528652848820908852855283872080548216831790558a87526005855283872089885285528387208054821683179055600685529286208054909316179091559287905252546005190161119e5760048101805460ff191660011790555b81836001600160a01b0316857fb38ec462a27a03c1234c1c28d4163b417ea231eca7755dfc64b4758853841ab260405160405180910390a4506111e16001600055565b505050565b6007546001600160a01b0316331461122d5760405162461bcd60e51b815260206004820152600a60248201526927b7363c9030b236b4b760b11b6044820152606401610580565b6001600160a01b0381166112755760405162461bcd60e51b815260206004820152600f60248201526e496e76616c6964206164647265737360881b6044820152606401610580565b600780546001600160a01b0319166001600160a01b0392909216919091179055565b61129f611ade565b60008381526002602081905260409091209060048083015460ff16908111156112ca576112ca611faa565b1461130a5760405162461bcd60e51b815260206004820152601060248201526f149858d9481b9bdd081cdd185c9d195960821b6044820152606401610580565b6006821461135a5760405162461bcd60e51b815260206004820152601a60248201527f4d7573742070726f7669646520616c6c20706f736974696f6e730000000000006044820152606401610580565b6000848152600360205260408120905b838110156114d3576000805b8354811015611485578686848181106113915761139161231a565b905060200201358482815481106113aa576113aa61231a565b9060005260206000209060040201600101540361147d578381815481106113d3576113d361231a565b600091825260209091206003600490920201015460ff161561142e5760405162461bcd60e51b8152602060048201526014602482015273141bdcda5d1a5bdb88185b1c9958591e481cd95d60621b6044820152606401610580565b6114398360016122ee565b84828154811061144b5761144b61231a565b906000526020600020906004020160030160006101000a81548160ff021916908360ff16021790555060019150611485565b600101611376565b50806114ca5760405162461bcd60e51b8152602060048201526014602482015273125b9d985b1a59081c985d081d1bdad95b88125160621b6044820152606401610580565b5060010161136a565b5060048201805460ff191660031790554260088301556114f285611b75565b60005b8154811015611552576000600660008484815481106115165761151661231a565b600091825260208083206001600490930201820154845283019390935260409091019020805492151560ff1990931692909217909155016114f5565b5060408051600680825260e082019092526000916020820160c080368337505060408051600680825260e0820190925292935060009291506020820160c08036833701905050905060005b60068110156116975760005b845481101561168e578787838181106115c4576115c461231a565b905060200201358582815481106115dd576115dd61231a565b90600052602060002090600402016001015403611686578481815481106116065761160661231a565b600091825260209091206004909102015484516001600160a01b03909116908590849081106116375761163761231a565b6001600160a01b03909216602092830291909101909101526116638961165e8460016122ee565b611e0d565b8383815181106116755761167561231a565b60200260200101818152505061168e565b6001016115a9565b5060010161159d565b50867f928f85b863ed938e4943d45e2e84196acd1762799f44f621f706851b082c6f8d878785856040516116ce949392919061236c565b60405180910390a2505050506111e16001600055565b6003602052816000526040600020818154811061170057600080fd5b600091825260209091206004909102018054600182015460028301546003909301546001600160a01b039092169450925060ff1684565b606060036000838152602001908152602001600020805480602002602001604051908101604052809291908181526020016000905b828210156117cc576000848152602090819020604080516080810182526004860290920180546001600160a01b03168352600180820154848601526002820154928401929092526003015460ff166060830152908352909201910161176c565b505050509050919050565b6117df611ade565b6000818152600260205260409020600681015461180e5760405162461bcd60e51b81526004016105809061228e565b60018101546001600160a01b0316331461186a5760405162461bcd60e51b815260206004820152601760248201527f4f6e6c792063726561746f722063616e2063616e63656c0000000000000000006044820152606401610580565b600060048083015460ff169081111561188557611885611faa565b14806118a95750600160048083015460ff16908111156118a7576118a7611faa565b145b6118f55760405162461bcd60e51b815260206004820152601860248201527f526163652063616e6e6f742062652063616e63656c6c656400000000000000006044820152606401610580565b6004818101805460ff191690911790556000828152600360205260408120905b8154811015611a6d576119618282815481106119335761193361231a565b6000918252602090912060049091020154600385015460028601546001600160a01b03908116921690611eaa565b6000848152600460205260408120835482908590859081106119855761198561231a565b60009182526020808320600492909202909101546001600160a01b031683528281019390935260409182018120805460ff19169415159490941790935586835260059091528120835482908590859081106119e2576119e261231a565b906000526020600020906004020160010154815260200190815260200160002060006101000a81548160ff021916908315150217905550600060066000848481548110611a3157611a3161231a565b600091825260208083206001600490930201820154845283019390935260409091019020805492151560ff199093169290921790915501611915565b50600060058301819055604051339185917f496d421db86bc7be6abc7c42d8e1c03f075b539afa9f2098e151fa6e441d81d39190a35050611aae6001600055565b50565b60008281526004602090815260408083206001600160a01b038516845290915290205460ff165b92915050565b600260005403611b0157604051633ee5aeb560e01b815260040160405180910390fd5b6002600055565b6040516001600160a01b038481166024830152838116604483015260648201839052611b6f9186918216906323b872dd906084015b604051602081830303815290604052915060e01b6020820180516001600160e01b038381831617835250505050611edb565b50505050565b60008181526002602052604081206005810154909190606490611b9a90600a90612408565b611ba4919061241f565b60018301546002840154919250611bc8916001600160a01b03908116911683611eaa565b6000818360050154611bda9190612441565b60408051600680825260e08201909252919250600091906020820160c080368337019050509050603281600081518110611c1657611c1661231a565b602002602001018181525050601e81600181518110611c3757611c3761231a565b602002602001018181525050601481600281518110611c5857611c5861231a565b6020908102919091018101919091526000868152600390915260408120905b8154811015611e04576000828281548110611c9457611c9461231a565b600091825260209091206003600490920201015460ff16118015611ce157506003828281548110611cc757611cc761231a565b600091825260209091206003600490920201015460ff1611155b15611dfc5760006064846001858581548110611cff57611cff61231a565b6000918252602090912060036004909202010154611d20919060ff16612454565b60ff1681518110611d3357611d3361231a565b602002602001015186611d469190612408565b611d50919061241f565b90508015611dfa57611d96838381548110611d6d57611d6d61231a565b600091825260209091206004909102015460028901546001600160a01b03908116911683611eaa565b828281548110611da857611da861231a565b6000918252602091829020600490910201546040518381526001600160a01b03909116918a917f4aa95f981a8337cb337de335b965507da0879c3b49f799d20058e913f5ad2c26910160405180910390a35b505b600101611c77565b50505050505050565b6000828152600260205260408120816064611e29600a82612441565b8360050154611e389190612408565b611e42919061241f565b90508360ff16600103611e6f576064611e5c826032612408565b611e66919061241f565b92505050611ad8565b8360ff16600203611e87576064611e5c82601e612408565b8360ff16600303611e9f576064611e5c826014612408565b506000949350505050565b6040516001600160a01b038381166024830152604482018390526111e191859182169063a9059cbb90606401611b3d565b600080602060008451602086016000885af180611efe576040513d6000823e3d81fd5b50506000513d91508115611f16578060011415611f23565b6001600160a01b0384163b155b15611b6f57604051635274afe760e01b81526001600160a01b0385166004820152602401610580565b6001600160a01b0381168114611aae57600080fd5b60008060408385031215611f7457600080fd5b823591506020830135611f8681611f4c565b809150509250929050565b600060208284031215611fa357600080fd5b5035919050565b634e487b7160e01b600052602160045260246000fd5b60058110611fde57634e487b7160e01b600052602160045260246000fd5b9052565b81518152602080830151610140830191612006908401826001600160a01b03169052565b50604083015161201b604084018260ff169052565b50606083015161203660608401826001600160a01b03169052565b506080830151608083015260a083015161205360a0840182611fc0565b5060c083015160c083015260e083015160e083015261010080840151818401525061012080840151818401525092915050565b6000806040838503121561209957600080fd5b50508035926020909101359150565b6000806000606084860312156120bd57600080fd5b833560ff811681146120ce57600080fd5b925060208401356120de81611f4c565b929592945050506040919091013590565b60008060006060848603121561210457600080fd5b8335925060208401356120de81611f4c565b60006020828403121561212857600080fd5b813561213381611f4c565b9392505050565b8a81526001600160a01b038a8116602083015260ff8a1660408301528816606082015260808101879052610140810161217660a0830188611fc0565b8560c08301528460e083015283610100830152826101208301529b9a5050505050505050505050565b6000806000604084860312156121b457600080fd5b83359250602084013567ffffffffffffffff808211156121d357600080fd5b818601915086601f8301126121e757600080fd5b8135818111156121f657600080fd5b8760208260051b850101111561220b57600080fd5b6020830194508093505050509250925092565b602080825282518282018190526000919060409081850190868401855b8281101561228157815180516001600160a01b031685528681015187860152858101518686015260609081015160ff16908501526080909301929085019060010161223b565b5091979650505050505050565b602080825260139082015272149858d948191bd95cc81b9bdd08195e1a5cdd606a1b604082015260600190565b6000602082840312156122cd57600080fd5b815161213381611f4c565b634e487b7160e01b600052601160045260246000fd5b80820180821115611ad857611ad86122d8565b600060018201612313576123136122d8565b5060010190565b634e487b7160e01b600052603260045260246000fd5b60008151808452602080850194506020840160005b8381101561236157815187529582019590820190600101612345565b509495945050505050565b6060808252810184905260006001600160fb1b0385111561238c57600080fd5b8460051b808760808501376080908301838103820160208086019190915286519282018390528681019260009260a001905b808410156123e75784516001600160a01b031682529382019360019390930192908201906123be565b5085810360408701526123fa8188612330565b9a9950505050505050505050565b8082028115828204841417611ad857611ad86122d8565b60008261243c57634e487b7160e01b600052601260045260246000fd5b500490565b81810381811115611ad857611ad86122d8565b60ff8281168282160390811115611ad857611ad86122d856fea2646970667358221220f79f923218d141e04a41e793707bc9482eebe0420f57f62bf1d8d968421c73e564736f6c63430008180033",
  "linkReferences": {},
  "deployedLinkReferences": {}
}