{
  "_format": "hh-sol-artifact-1",
  "contractName": "RatNFT",
  "sourceName": "contracts/RatNFT.sol",
  "abi": [
    {
      "inputs": [
        {
          "internalType": "string",
          "name": "name_",
          "type": "string"
        },
        {
          "internalType": "string",
          "name": "symbol_",
          "type": "string"
        },
        {
          "internalType": "string",
          "name": "baseTokenURI_",
          "type": "string"
        },
        {
          "internalType": "address",
          "name": "raceToken_",
          "type": "address"
        },
        {
          "internalType": "uint256",
          "name": "initialMintPrice_",
          "type": "uint256"
        }
      ],
      "stateMutability": "nonpayable",
      "type": "constructor"
    },
    {
      "inputs": [],
      "name": "ERC721EnumerableForbiddenBatchMint",
      "type": "error"
    },
    {
      "inputs": [
        {
          "internalType": "address",
          "name": "sender",
          "type": "address"
        },
        {
          "internalType": "uint256",
          "name": "tokenId",
          "type": "uint256"
        },
        {
          "internalType": "address",
          "name": "owner",
          "type": "address"
        }
      ],
      "name": "ERC721IncorrectOwner",
      "type": "error"
    },
    {
      "inputs": [
        {
          "internalType": "address",
          "name": "operator",
          "type": "address"
        },
        {
          "internalType": "uint256",
          "name": "tokenId",
          "type": "uint256"
        }
      ],
      "name": "ERC721InsufficientApproval",
      "type": "error"
    },
    {
      "inputs": [
        {
          "internalType": "address",
          "name": "approver",
          "type": "address"
        }
      ],
      "name": "ERC721InvalidApprover",
      "type": "error"
    },
    {
      "inputs": [
        {
          "internalType": "address",
          "name": "operator",
          "type": "address"
        }
      ],
      "name": "ERC721InvalidOperator",
      "type": "error"
    },
    {
      "inputs": [
        {
          "internalType": "address",
          "name": "owner",
          "type": "address"
        }
      ],
      "name": "ERC721InvalidOwner",
      "type": "error"
    },
    {
      "inputs": [
        {
          "internalType": "address",
          "name": "receiver",
          "type": "address"
        }
      ],
      "name": "ERC721InvalidReceiver",
      "type": "error"
    },
    {
      "inputs": [
        {
          "internalType": "address",
          "name": "sender",
          "type": "address"
        }
      ],
      "name": "ERC721InvalidSender",
      "type": "error"
    },
    {
      "inputs": [
        {
          "internalType": "uint256",
          "name": "tokenId",
          "type": "uint256"
        }
      ],
      "name": "ERC721NonexistentToken",
      "type": "error"
    },
    {
      "inputs": [
        {
          "internalType": "address",
          "name": "owner",
          "type": "address"
        },
        {
          "internalType": "uint256",
          "name": "index",
          "type": "uint256"
        }
      ],
      "name": "ERC721OutOfBoundsIndex",
      "type": "error"
    },
    {
      "inputs": [
        {
          "internalType": "address",
          "name": "owner",
          "type": "address"
        }
      ],
      "name": "OwnableInvalidOwner",
      "type": "error"
    },
    {
      "inputs": [
        {
          "internalType": "address",
          "name": "account",
          "type": "address"
        }
      ],
      "name": "OwnableUnauthorizedAccount",
      "type": "error"
    },
    {
      "anonymous": false,
      "inputs": [
        {
          "indexed": true,
          "internalType": "address",
          "name": "owner",
          "type": "address"
        },
        {
          "indexed": true,
          "internalType": "address",
          "name": "approved",
          "type": "address"
        },
        {
          "indexed": true,
          "internalType": "uint256",
          "name": "tokenId",
          "type": "uint256"
        }
      ],
      "name": "Approval",
      "type": "event"
    },
    {
      "anonymous": false,
      "inputs": [
        {
          "indexed": true,
          "internalType": "address",
          "name": "owner",
          "type": "address"
        },
        {
          "indexed": true,
          "internalType": "address",
          "name": "operator",
          "type": "address"
        },
        {
          "indexed": false,
          "internalType": "bool",
          "name": "approved",
          "type": "bool"
        }
      ],
      "name": "ApprovalForAll",
      "type": "event"
    },
    {
      "anonymous": false,
      "inputs": [
        {
          "indexed": false,
          "internalType": "string",
          "name": "newBaseURI",
          "type": "string"
        }
      ],
      "name": "BaseURIUpdated",
      "type": "event"
    },
    {
      "anonymous": false,
      "inputs": [
        {
          "indexed": false,
          "internalType": "uint256",
          "name": "newPrice",
          "type": "uint256"
        }
      ],
      "name": "MintPriceUpdated",
      "type": "event"
    },
    {
      "anonymous": false,
      "inputs": [
        {
          "indexed": true,
          "internalType": "address",
          "name": "previousOwner",
          "type": "address"
        },
        {
          "indexed": true,
          "internalType": "address",
          "name": "newOwner",
          "type": "address"
        }
      ],
      "name": "OwnershipTransferred",
      "type": "event"
    },
    {
      "anonymous": false,
      "inputs": [
        {
          "indexed": true,
          "internalType": "address",
          "name": "to",
          "type": "address"
        },
        {
          "indexed": true,
          "internalType": "uint256",
          "name": "tokenId",
          "type": "uint256"
        },
        {
          "indexed": false,
          "internalType": "uint8",
          "name": "imageIndex",
          "type": "uint8"
        }
      ],
      "name": "RatMinted",
      "type": "event"
    },
    {
      "anonymous": false,
      "inputs": [
        {
          "indexed": true,
          "internalType": "address",
          "name": "from",
          "type": "address"
        },
        {
          "indexed": true,
          "internalType": "address",
          "name": "to",
          "type": "address"
        },
        {
          "indexed": true,
          "internalType": "uint256",
          "name": "tokenId",
          "type": "uint256"
        }
      ],
      "name": "Transfer",
      "type": "event"
    },
    {
      "inputs": [
        {
          "internalType": "address",
          "name": "to",
          "type": "address"
        },
        {
          "internalType": "uint256",
          "name": "tokenId",
          "type": "uint256"
        }
      ],
      "name": "approve",
      "outputs": [],
      "stateMutability": "nonpayable",
      "type": "function"
    },
    {
      "inputs": [
        {
          "internalType": "address",
          "name": "owner",
          "type": "address"
        }
      ],
      "name": "balanceOf",
      "outputs": [
        {
          "internalType": "uint256",
          "name": "",
          "type": "uint256"
        }
      ],
      "stateMutability": "view",
      "type": "function"
    },
    {
      "inputs": [
        {
          "internalType": "uint256",
          "name": "tokenId",
          "type": "uint256"
        }
      ],
      "name": "getApproved",
      "outputs": [
        {
          "internalType": "address",
          "name": "",
          "type": "address"
        }
      ],
      "stateMutability": "view",
      "type": "function"
    },
    {
      "inputs": [],
      "name": "getMintPrice",
      "outputs": [
        {
          "internalType": "uint256",
          "name": "",
          "type": "uint256"
        }
      ],
      "stateMutability": "view",
      "type": "function"
    },
    {
      "inputs": [
        {
          "internalType": "address",
          "name": "owner",
          "type": "address"
        }
      ],
      "name": "getRatsOfOwner",
      "outputs": [
        {
          "internalType": "uint256[]",
          "name": "",
          "type": "uint256[]"
        }
      ],
      "stateMutability": "view",
      "type": "function"
    },
    {
      "inputs": [
        {
          "internalType": "address",
          "name": "owner",
          "type": "address"
        },
        {
          "internalType": "address",
          "name": "operator",
          "type": "address"
        }
      ],
      "name": "isApprovedForAll",
      "outputs": [
        {
          "internalType": "bool",
          "name": "",
          "type": "bool"
        }
      ],
      "stateMutability": "view",
      "type": "function"
    },
    {
      "inputs": [
        {
          "internalType": "address",
          "name": "to",
          "type": "address"
        },
        {
          "internalType": "uint8",
          "name": "imageIndex",
          "type": "uint8"
        }
      ],
      "name": "mint",
      "outputs": [
        {
          "internalType": "uint256",
          "name": "",
          "type": "uint256"
        }
      ],
      "stateMutability": "nonpayable",
      "type": "function"
    },
    {
      "inputs": [],
      "name": "mintPrice",
      "outputs": [
        {
          "internalType": "uint256",
          "name": "",
          "type": "uint256"
        }
      ],
      "stateMutability": "view",
      "type": "function"
    },
    {
      "inputs": [],
      "name": "name",
      "outputs": [
        {
          "internalType": "string",
          "name": "",
          "type": "string"
        }
      ],
      "stateMutability": "view",
      "type": "function"
    },
    {
      "inputs": [],
      "name": "nextTokenId",
      "outputs": [
        {
          "internalType": "uint256",
          "name": "",
          "type": "uint256"
        }
      ],
      "stateMutability": "view",
      "type": "function"
    },
    {
      "inputs": [],
      "name": "owner",
      "outputs": [
        {
          "internalType": "address",
          "name": "",
          "type": "address"
        }
      ],
      "stateMutability": "view",
      "type": "function"
    },
    {
      "inputs": [
        {
          "internalType": "address",
          "name": "to",
          "type": "address"
        },
        {
          "internalType": "uint8",
          "name": "imageIndex",
          "type": "uint8"
        }
      ],
      "name": "ownerMint",
      "outputs": [
        {
          "internalType": "uint256",
          "name": "",
          "type": "uint256"
        }
      ],
      "stateMutability": "nonpayable",
      "type": "function"
    },
    {
      "inputs": [
        {
          "internalType": "uint256",
          "name": "tokenId",
          "type": "uint256"
        }
      ],
      "name": "ownerOf",
      "outputs": [
        {
          "internalType": "address",
          "name": "",
          "type": "address"
        }
      ],
      "stateMutability": "view",
      "type": "function"
    },
    {
      "inputs": [],
      "name": "raceToken",
      "outputs": [
        {
          "internalType": "contract IERC20",
          "name": "",
          "type": "address"
        }
      ],
      "stateMutability": "view",
      "type": "function"
    },
    {
      "inputs": [],
      "name": "renounceOwnership",
      "outputs": [],
      "stateMutability": "nonpayable",
      "type": "function"
    },
    {
      "inputs": [
        {
          "internalType": "address",
          "name": "from",
          "type": "address"
        },
        {
          "internalType": "address",
          "name": "to",
          "type": "address"
        },
        {
          "internalType": "uint256",
          "name": "tokenId",
          "type": "uint256"
        }
      ],
      "name": "safeTransferFrom",
      "outputs": [],
      "stateMutability": "nonpayable",
      "type": "function"
    },
    {
      "inputs": [
        {
          "internalType": "address",
          "name": "from",
          "type": "address"
        },
        {
          "internalType": "address",
          "name": "to",
          "type": "address"
        },
        {
          "internalType": "uint256",
          "name": "tokenId",
          "type": "uint256"
        },
        {
          "internalType": "bytes",
          "name": "data",
          "type": "bytes"
        }
      ],
      "name": "safeTransferFrom",
      "outputs": [],
      "stateMutability": "nonpayable",
      "type": "function"
    },
    {
      "inputs": [
        {
          "internalType": "address",
          "name": "operator",
          "type": "address"
        },
        {
          "internalType": "bool",
          "name": "approved",
          "type": "bool"
        }
      ],
      "name": "setApprovalForAll",
      "outputs": [],
      "stateMutability": "nonpayable",
      "type": "function"
    },
    {
      "inputs": [
        {
          "internalType": "string",
          "name": "baseTokenURI_",
          "type": "string"
        }
      ],
      "name": "setBaseURI",
      "outputs": [],
      "stateMutability": "nonpayable",
      "type": "function"
    },
    {
      "inputs": [
        {
          "internalType": "uint256",
          "name": "newPrice",
          "type": "uint256"
        }
      ],
      "name": "setMintPrice",
      "outputs": [],
      "stateMutability": "nonpayable",
      "type": "function"
    },
    {
      "inputs": [
        {
          "internalType": "bytes4",
          "name": "interfaceId",
          "type": "bytes4"
        }
      ],
      "name": "supportsInterface",
      "outputs": [
        {
          "internalType": "bool",
          "name": "",
          "type": "bool"
        }
      ],
      "stateMutability": "view",
      "type": "function"
    },
    {
      "inputs": [],
      "name": "symbol",
      "outputs": [
        {
          "internalType": "string",
          "name": "",
          "type": "string"
        }
      ],
      "stateMutability": "view",
      "type": "function"
    },
    {
      "inputs": [
        {
          "internalType": "uint256",
          "name": "index",
          "type": "uint256"
        }
      ],
      "name": "tokenByIndex",
      "outputs": [
        {
          "internalType": "uint256",
          "name": "",
          "type": "uint256"
        }
      ],
      "stateMutability": "view",
      "type": "function"
    },
    {
      "inputs": [
        {
          "internalType": "address",
          "name": "owner",
          "type": "address"
        },
        {
          "internalType": "uint256",
          "name": "index",
          "type": "uint256"
        }
      ],
      "name": "tokenOfOwnerByIndex",
      "outputs": [
        {
          "internalType": "uint256",
          "name": "",
          "type": "uint256"
        }
      ],
      "stateMutability": "view",
      "type": "function"
    },
    {
      "inputs": [
        {
          "internalType": "uint256",
          "name": "tokenId",
          "type": "uint256"
        }
      ],
      "name": "tokenURI",
      "outputs": [
        {
          "internalType": "string",
          "name": "",
          "type": "string"
        }
      ],
      "stateMutability": "view",
      "type": "function"
    },
    {
      "inputs": [],
      "name": "totalSupply",
      "outputs": [
        {
          "internalType": "uint256",
          "name": "",
          "type": "uint256"
        }
      ],
      "stateMutability": "view",
      "type": "function"
    },
    {
      "inputs": [
        {
          "internalType": "address",
          "name": "from",
          "type": "address"
        },
        {
          "internalType": "address",
          "name": "to",
          "type": "address"
        },
        {
          "internalType": "uint256",
          "name": "tokenId",
          "type": "uint256"
        }
      ],
      "name": "transferFrom",
      "outputs": [],
      "stateMutability": "nonpayable",
      "type": "function"
    },
    {
      "inputs": [
        {
          "internalType": "address",
          "name": "newOwner",
          "type": "address"
        }
      ],
      "name": "transferOwnership",
      "outputs": [],
      "stateMutability": "nonpayable",
      "type": "function"
    },
    {
      "inputs": [
        {
          "internalType": "address",
          "name": "to",
          "type": "address"
        },
        {
          "internalType": "uint256",
          "name": "amount",
          "type": "uint256"
        }
      ],
      "name": "withdrawRaceTokens",
      "outputs": [],
      "stateMutability": "nonpayable",
      "type": "function"
    }
  ],
  "bytecode": "0x60806040523480156200001157600080fd5b5060405162002078380380620020788339810160408190526200003491620001ee565b33858560006200004583826200033e565b5060016200005482826200033e565b5050506001600160a01b0381166200008657604051631e4fbdf760e01b81526000600482015260240160405180910390fd5b6200009181620000d4565b506001600b55600c620000a584826200033e565b50600d80546001600160a01b0319166001600160a01b039390931692909217909155600e55506200040a915050565b600a80546001600160a01b038381166001600160a01b0319831681179093556040519116919082907f8be0079c531659141344cd1fd0a4f28419497f9722a3daafe3b4186f6b6457e090600090a35050565b634e487b7160e01b600052604160045260246000fd5b600082601f8301126200014e57600080fd5b81516001600160401b03808211156200016b576200016b62000126565b604051601f8301601f19908116603f0116810190828211818310171562000196576200019662000126565b8160405283815260209250866020858801011115620001b457600080fd5b600091505b83821015620001d85785820183015181830184015290820190620001b9565b6000602085830101528094505050505092915050565b600080600080600060a086880312156200020757600080fd5b85516001600160401b03808211156200021f57600080fd5b6200022d89838a016200013c565b965060208801519150808211156200024457600080fd5b6200025289838a016200013c565b955060408801519150808211156200026957600080fd5b5062000278888289016200013c565b606088015190945090506001600160a01b03811681146200029857600080fd5b80925050608086015190509295509295909350565b600181811c90821680620002c257607f821691505b602082108103620002e357634e487b7160e01b600052602260045260246000fd5b50919050565b601f82111562000339576000816000526020600020601f850160051c81016020861015620003145750805b601f850160051c820191505b81811015620003355782815560010162000320565b5050505b505050565b81516001600160401b038111156200035a576200035a62000126565b62000372816200036b8454620002ad565b84620002e9565b602080601f831160018114620003aa5760008415620003915750858301515b600019600386901b1c1916600185901b17855562000335565b600085815260208120601f198616915b82811015620003db57888601518255948401946001909101908401620003ba565b5085821015620003fa5787850151600019600388901b60f8161c191681555b5050505050600190811b01905550565b611c5e806200041a6000396000f3fe608060405234801561001057600080fd5b50600436106101cf5760003560e01c8063691562a011610104578063a7f93ebd116100a2578063c87b56dd11610071578063c87b56dd146103b4578063e985e9c5146103c7578063f2fde38b146103da578063f4a0a528146103ed57600080fd5b8063a7f93ebd14610373578063b63c223d1461037b578063b6ab179d1461038e578063b88d4fde146103a157600080fd5b806375794a3c116100de57806375794a3c1461033f5780638da5cb5b1461034757806395d89b4114610358578063a22cb4651461036057600080fd5b8063691562a01461031157806370a0823114610324578063715018a61461033757600080fd5b80633855c60d116101715780634f6ccce71161014b5780634f6ccce7146102cf57806355f804b3146102e25780636352211e146102f55780636817c76c1461030857600080fd5b80633855c60d146102895780633b696a841461029c57806342842e0e146102bc57600080fd5b8063095ea7b3116101ad578063095ea7b31461023c57806318160ddd1461025157806323b872dd146102635780632f745c591461027657600080fd5b806301ffc9a7146101d457806306fdde03146101fc578063081812fc14610211575b600080fd5b6101e76101e236600461165d565b610400565b60405190151581526020015b60405180910390f35b61020461042b565b6040516101f391906116ca565b61022461021f3660046116dd565b6104bd565b6040516001600160a01b0390911681526020016101f3565b61024f61024a366004611712565b6104e6565b005b6008545b6040519081526020016101f3565b61024f61027136600461173c565b6104f5565b610255610284366004611712565b610585565b610255610297366004611778565b6105ea565b6102af6102aa3660046117b5565b6106b5565b6040516101f391906117d0565b61024f6102ca36600461173c565b61074d565b6102556102dd3660046116dd565b61076d565b61024f6102f03660046118a0565b6107c6565b6102246103033660046116dd565b610815565b610255600e5481565b61025561031f366004611778565b610820565b6102556103323660046117b5565b61098a565b61024f6109d2565b600b54610255565b600a546001600160a01b0316610224565b6102046109e6565b61024f61036e3660046118f7565b6109f5565b600e54610255565b61024f610389366004611712565b610a00565b600d54610224906001600160a01b031681565b61024f6103af366004611923565b610b13565b6102046103c23660046116dd565b610b2b565b6101e76103d536600461199f565b610b93565b61024f6103e83660046117b5565b610bc1565b61024f6103fb3660046116dd565b610bff565b60006001600160e01b0319821663780e9d6360e01b1480610425575061042582610c3c565b92915050565b60606000805461043a906119d2565b80601f0160208091040260200160405190810160405280929190818152602001828054610466906119d2565b80156104b35780601f10610488576101008083540402835291602001916104b3565b820191906000526020600020905b81548152906001019060200180831161049657829003601f168201915b5050505050905090565b60006104c882610c8c565b506000828152600460205260409020546001600160a01b0316610425565b6104f1828233610cc5565b5050565b6001600160a01b03821661052457604051633250574960e11b8152600060048201526024015b60405180910390fd5b6000610531838333610cd2565b9050836001600160a01b0316816001600160a01b03161461057f576040516364283d7b60e01b81526001600160a01b038086166004830152602482018490528216604482015260640161051b565b50505050565b60006105908361098a565b82106105c15760405163295f44f760e21b81526001600160a01b03841660048201526024810183905260440161051b565b506001600160a01b03919091166000908152600660209081526040808320938352929052205490565b60006105f4610da7565b6001600160a01b03831661064a5760405162461bcd60e51b815260206004820152601b60248201527f43616e6e6f74206d696e7420746f207a65726f20616464726573730000000000604482015260640161051b565b600b80546000918261065b83611a22565b91905055905061066b8482610dd4565b60405160ff8416815281906001600160a01b038616907f354ed63ee646671d8b973987ba32d0c23eb70651ad8e8e73fc7afbacf777e7e89060200160405180910390a39392505050565b606060006106c28361098a565b905060008167ffffffffffffffff8111156106df576106df611814565b604051908082528060200260200182016040528015610708578160200160208202803683370190505b50905060005b82811015610745576107208582610585565b82828151811061073257610732611a3b565b602090810291909101015260010161070e565b509392505050565b61076883838360405180602001604052806000815250610b13565b505050565b600061077860085490565b82106107a15760405163295f44f760e21b8152600060048201526024810183905260440161051b565b600882815481106107b4576107b4611a3b565b90600052602060002001549050919050565b6107ce610da7565b600c6107da8282611a99565b507f6741b2fc379fad678116fe3d4d4b9a1a184ab53ba36b86ad0fa66340b1ab41ad8160405161080a91906116ca565b60405180910390a150565b600061042582610c8c565b60006001600160a01b0383166108785760405162461bcd60e51b815260206004820152601b60248201527f43616e6e6f74206d696e7420746f207a65726f20616464726573730000000000604482015260640161051b565b6000600e54116108bf5760405162461bcd60e51b8152602060048201526012602482015271135a5b9d081c1c9a58d9481b9bdd081cd95d60721b604482015260640161051b565b600d54600e546040516323b872dd60e01b815233600482015230602482015260448101919091526001600160a01b03909116906323b872dd906064016020604051808303816000875af115801561091a573d6000803e3d6000fd5b505050506040513d601f19601f8201168201806040525081019061093e9190611b59565b61064a5760405162461bcd60e51b815260206004820152601a60248201527f5241434520746f6b656e207472616e73666572206661696c6564000000000000604482015260640161051b565b60006001600160a01b0382166109b6576040516322718ad960e21b81526000600482015260240161051b565b506001600160a01b031660009081526003602052604090205490565b6109da610da7565b6109e46000610dee565b565b60606001805461043a906119d2565b6104f1338383610e40565b610a08610da7565b6001600160a01b038216610a5e5760405162461bcd60e51b815260206004820152601f60248201527f43616e6e6f7420776974686472617720746f207a65726f206164647265737300604482015260640161051b565b600d5460405163a9059cbb60e01b81526001600160a01b038481166004830152602482018490529091169063a9059cbb906044016020604051808303816000875af1158015610ab1573d6000803e3d6000fd5b505050506040513d601f19601f82011682018060405250810190610ad59190611b59565b6104f15760405162461bcd60e51b815260206004820152600f60248201526e151c985b9cd9995c8819985a5b1959608a1b604482015260640161051b565b610b1e8484846104f5565b61057f3385858585610edf565b6060610b3682610c8c565b506000610b4161100a565b90506000815111610b615760405180602001604052806000815250610b8c565b80610b6b84611019565b604051602001610b7c929190611b76565b6040516020818303038152906040525b9392505050565b6001600160a01b03918216600090815260056020908152604080832093909416825291909152205460ff1690565b610bc9610da7565b6001600160a01b038116610bf357604051631e4fbdf760e01b81526000600482015260240161051b565b610bfc81610dee565b50565b610c07610da7565b600e8190556040518181527f525b762709cc2a983aec5ccdfd807a061f993c91090b5bcd7da92ca254976aaa9060200161080a565b60006001600160e01b031982166380ac58cd60e01b1480610c6d57506001600160e01b03198216635b5e139f60e01b145b8061042557506301ffc9a760e01b6001600160e01b0319831614610425565b6000818152600260205260408120546001600160a01b03168061042557604051637e27328960e01b81526004810184905260240161051b565b61076883838360016110ac565b600080610ce08585856111b2565b90506001600160a01b038116610d3d57610d3884600880546000838152600960205260408120829055600182018355919091527ff3f7a9fe364faab93b216da50a3214154f22a0a2b415b23a84c8169e8b636ee30155565b610d60565b846001600160a01b0316816001600160a01b031614610d6057610d6081856112ab565b6001600160a01b038516610d7c57610d778461132c565b610d9f565b846001600160a01b0316816001600160a01b031614610d9f57610d9f85856113db565b949350505050565b600a546001600160a01b031633146109e45760405163118cdaa760e01b815233600482015260240161051b565b6104f182826040518060200160405280600081525061142b565b600a80546001600160a01b038381166001600160a01b0319831681179093556040519116919082907f8be0079c531659141344cd1fd0a4f28419497f9722a3daafe3b4186f6b6457e090600090a35050565b6001600160a01b038216610e7257604051630b61174360e31b81526001600160a01b038316600482015260240161051b565b6001600160a01b03838116600081815260056020908152604080832094871680845294825291829020805460ff191686151590811790915591519182527f17307eab39ab6107e8899845ad3d59bd9653f200f220920489ca2b5937696c31910160405180910390a3505050565b6001600160a01b0383163b1561100357604051630a85bd0160e11b81526001600160a01b0384169063150b7a0290610f21908890889087908790600401611ba5565b6020604051808303816000875af1925050508015610f5c575060408051601f3d908101601f19168201909252610f5991810190611be2565b60015b610fc5573d808015610f8a576040519150601f19603f3d011682016040523d82523d6000602084013e610f8f565b606091505b508051600003610fbd57604051633250574960e11b81526001600160a01b038516600482015260240161051b565b805160208201fd5b6001600160e01b03198116630a85bd0160e11b1461100157604051633250574960e11b81526001600160a01b038516600482015260240161051b565b505b5050505050565b6060600c805461043a906119d2565b6060600061102683611443565b600101905060008167ffffffffffffffff81111561104657611046611814565b6040519080825280601f01601f191660200182016040528015611070576020820181803683370190505b5090508181016020015b600019016f181899199a1a9b1b9c1cb0b131b232b360811b600a86061a8153600a850494508461107a57509392505050565b80806110c057506001600160a01b03821615155b156111825760006110d084610c8c565b90506001600160a01b038316158015906110fc5750826001600160a01b0316816001600160a01b031614155b801561110f575061110d8184610b93565b155b156111385760405163a9fbf51f60e01b81526001600160a01b038416600482015260240161051b565b81156111805783856001600160a01b0316826001600160a01b03167f8c5be1e5ebec7d5bd14f71427d1e84f3dd0314c0f7b2291e5b200ac8c7c3b92560405160405180910390a45b505b5050600090815260046020526040902080546001600160a01b0319166001600160a01b0392909216919091179055565b6000828152600260205260408120546001600160a01b03908116908316156111df576111df81848661151b565b6001600160a01b0381161561121d576111fc6000856000806110ac565b6001600160a01b038116600090815260036020526040902080546000190190555b6001600160a01b0385161561124c576001600160a01b0385166000908152600360205260409020805460010190555b60008481526002602052604080822080546001600160a01b0319166001600160a01b0389811691821790925591518793918516917fddf252ad1be2c89b69c2b068fc378daa952ba7f163c4a11628f55a4df523b3ef91a4949350505050565b60006112b68361098a565b6000838152600760209081526040808320546001600160a01b038816845260069092529091209192509081831461130d57600083815260208281526040808320548584528184208190558352600790915290208290555b6000938452600760209081526040808620869055938552525081205550565b60085460009061133e90600190611bff565b6000838152600960205260408120546008805493945090928490811061136657611366611a3b565b90600052602060002001549050806008838154811061138757611387611a3b565b60009182526020808320909101929092558281526009909152604080822084905585825281205560088054806113bf576113bf611c12565b6001900381819060005260206000200160009055905550505050565b600060016113e88461098a565b6113f29190611bff565b6001600160a01b039093166000908152600660209081526040808320868452825280832085905593825260079052919091209190915550565b611435838361157f565b610768336000858585610edf565b60008072184f03e93ff9f4daa797ed6e38ed64bf6a1f0160401b83106114825772184f03e93ff9f4daa797ed6e38ed64bf6a1f0160401b830492506040015b6d04ee2d6d415b85acef810000000083106114ae576d04ee2d6d415b85acef8100000000830492506020015b662386f26fc1000083106114cc57662386f26fc10000830492506010015b6305f5e10083106114e4576305f5e100830492506008015b61271083106114f857612710830492506004015b6064831061150a576064830492506002015b600a83106104255760010192915050565b6115268383836115e4565b610768576001600160a01b03831661155457604051637e27328960e01b81526004810182905260240161051b565b60405163177e802f60e01b81526001600160a01b03831660048201526024810182905260440161051b565b6001600160a01b0382166115a957604051633250574960e11b81526000600482015260240161051b565b60006115b783836000610cd2565b90506001600160a01b03811615610768576040516339e3563760e11b81526000600482015260240161051b565b60006001600160a01b03831615801590610d9f5750826001600160a01b0316846001600160a01b0316148061161e575061161e8484610b93565b80610d9f5750506000908152600460205260409020546001600160a01b03908116911614919050565b6001600160e01b031981168114610bfc57600080fd5b60006020828403121561166f57600080fd5b8135610b8c81611647565b60005b8381101561169557818101518382015260200161167d565b50506000910152565b600081518084526116b681602086016020860161167a565b601f01601f19169290920160200192915050565b602081526000610b8c602083018461169e565b6000602082840312156116ef57600080fd5b5035919050565b80356001600160a01b038116811461170d57600080fd5b919050565b6000806040838503121561172557600080fd5b61172e836116f6565b946020939093013593505050565b60008060006060848603121561175157600080fd5b61175a846116f6565b9250611768602085016116f6565b9150604084013590509250925092565b6000806040838503121561178b57600080fd5b611794836116f6565b9150602083013560ff811681146117aa57600080fd5b809150509250929050565b6000602082840312156117c757600080fd5b610b8c826116f6565b6020808252825182820181905260009190848201906040850190845b81811015611808578351835292840192918401916001016117ec565b50909695505050505050565b634e487b7160e01b600052604160045260246000fd5b600067ffffffffffffffff8084111561184557611845611814565b604051601f8501601f19908116603f0116810190828211818310171561186d5761186d611814565b8160405280935085815286868601111561188657600080fd5b858560208301376000602087830101525050509392505050565b6000602082840312156118b257600080fd5b813567ffffffffffffffff8111156118c957600080fd5b8201601f810184136118da57600080fd5b610d9f8482356020840161182a565b8015158114610bfc57600080fd5b6000806040838503121561190a57600080fd5b611913836116f6565b915060208301356117aa816118e9565b6000806000806080858703121561193957600080fd5b611942856116f6565b9350611950602086016116f6565b925060408501359150606085013567ffffffffffffffff81111561197357600080fd5b8501601f8101871361198457600080fd5b6119938782356020840161182a565b91505092959194509250565b600080604083850312156119b257600080fd5b6119bb836116f6565b91506119c9602084016116f6565b90509250929050565b600181811c908216806119e657607f821691505b602082108103611a0657634e487b7160e01b600052602260045260246000fd5b50919050565b634e487b7160e01b600052601160045260246000fd5b600060018201611a3457611a34611a0c565b5060010190565b634e487b7160e01b600052603260045260246000fd5b601f821115610768576000816000526020600020601f850160051c81016020861015611a7a5750805b601f850160051c820191505b8181101561100157828155600101611a86565b815167ffffffffffffffff811115611ab357611ab3611814565b611ac781611ac184546119d2565b84611a51565b602080601f831160018114611afc5760008415611ae45750858301515b600019600386901b1c1916600185901b178555611001565b600085815260208120601f198616915b82811015611b2b57888601518255948401946001909101908401611b0c565b5085821015611b495787850151600019600388901b60f8161c191681555b5050505050600190811b01905550565b600060208284031215611b6b57600080fd5b8151610b8c816118e9565b60008351611b8881846020880161167a565b835190830190611b9c81836020880161167a565b01949350505050565b6001600160a01b0385811682528416602082015260408101839052608060608201819052600090611bd89083018461169e565b9695505050505050565b600060208284031215611bf457600080fd5b8151610b8c81611647565b8181038181111561042557610425611a0c565b634e487b7160e01b600052603160045260246000fdfea2646970667358221220c4598b854d96bbbfb92764da8a96cd06152b2f2dfd00bb2971258e49eb836f9c64736f6c63430008180033",
  "linkReferences": {},
  "deployedLinkReferences": {}
}